:020000040800F2
:10000000200900200D0200080506000887050008E9
:100010000106000821030008C708000800000000CE
:100020000000000000000000000000009106000831
:10003000C1030008000000006D0600087D070008ED
:1000400027020008270200082702000827020008EC
:1000500027020008270200082702000827020008DC
:1000600027020008270200082702000827020008CC
:1000700027020008270200082702000827020008BC
:1000800027020008270200082702000827020008AC
:10009000270200082702000827020008270200089C
:1000A000270200082702000827020008270200088C
:1000B000270200082702000827020008270200087C
:1000C000270200082702000827020008270200086C
:1000D00027020008E107000827020008270200089D
:1000E000270200082702000827020008270200084C
:1000F000270200082702000827020008270200083C
:10010000270200082702000827020008270200082B
:10011000270200082702000827020008270200081B
:10012000270200082702000827020008270200080B
:1001300000F002F800F05AF80AA090E8000C82449F
:100140008344AAF10107DA4501D100F04FF8AFF27C
:10015000090EBAE80F0013F0010F18BFFB1A43F0A5
:100160000103184778090000980900000A444FF07D
:10017000000C10F8013B13F0070408BF10F8014B06
:100180001D1108BF10F8015B641E05D010F8016B4B
:10019000641E01F8016BF9D113F0080F1EBF10F8AF
:1001A000014BAD1C0C1B09D16D1E58BF01F801CBD2
:1001B000FAD505E014F8016B01F8016B6D1EF9D555
:1001C0009142D6D37047000000230024002500266A
:1001D000103A28BF78C1FBD8520728BF30C148BFAA
:1001E0000B6070471FB51FBD10B510BD00F033F890
:1001F0001146FFF7F7FF00F095FB00F051F803B44C
:10020000FFF7F2FF03BC00F067FB000009488047DE
:1002100009480047FEE7FEE7FEE7FEE7FEE7FEE7E8
:10022000FEE7FEE7FEE7FEE704480549054A064B00
:1002300070470000810700083101000820030020FA
:10024000200900202005002020050020704770476D
:10025000704770477047754600F02CF8AE460500B1
:100260006946534620F00700854618B020B5FFF7D1
:10027000DBFFBDE820404FF000064FF000074FF0D5
:1002800000084FF0000B21F00701AC46ACE8C009B4
:10029000ACE8C009ACE8C009ACE8C0098D467047BD
:1002A00010B50446AFF300802046BDE81040FFF7CC
:1002B000A6BF000000487047C00200202DE9F047AB
:1002C00006460F4614460025A846A94600BF20E072
:1002D00006F1B8012944C8B200F0B6FB07F14001AD
:1002E000C8B200F0B1FB4FF000080DE009EB44117B
:1002F0000A4A505C00F0CEFB09F1010000F0FF0952
:1003000008F1010000F0FF08B8F1100FEEDB681CE7
:10031000C5B2022DDCDBBDE8F08700000000002044
:1003200000BFFEE710B580210D4800F026F94021FE
:100330000B4800F024F900BF2021094800F01FF904
:1003400000F0C3FA2021064800F017F98021054883
:1003500000F00AF900F08004002CEDD110BD00007F
:1003600000100140000C014070B50821134800F056
:1003700004F91021114800F000F9B82000F064FBE6
:10038000402000F061FB002514E005F1B801C8B27F
:1003900000F05AFB002409E004F14001C8B200F06B
:1003A00053FB002000F076FB601CC4B2402CF3DB52
:1003B000681CC5B2082DE8DB70BD000000100140CC
:1003C00070472DE9F0410246002500260020002359
:1003D0000024002791F803C00CF00F0591F803C02A
:1003E0000CF0100CBCF1000F03D091F802C04CEAE5
:1003F000050591F800C0BCF1000F31D01468002051
:100400002BE04FF0010C0CFA00F3B1F800C00CEA3D
:1004100003069E4220D183004FF00F0C0CFA03F725
:10042000BC4305FA03FC4CEA040491F803C0BCF198
:10043000280F06D14FF0010C0CFA00FCC2F814C0D2
:100440000AE091F803C0BCF1480F05D14FF0010C50
:100450000CFA00FCC2F810C0401C0828D1D314606C
:10046000B1F800C0BCF1FF0F34DD546800202EE06D
:1004700000F1080C4FF0010808FA0CF3B1F800C0C5
:100480000CEA03069E4221D183004FF00F0C0CFAB8
:1004900003F7BC4305FA03FC4CEA040491F803C0DB
:1004A000BCF1280F05D100F1080C08FA0CF8C2F8CD
:1004B000148091F803C0BCF1480F07D100F1080C7B
:1004C0004FF0010808FA0CF8C2F81080401C082808
:1004D000CED35460BDE8F081F0B50A460023002475
:1004E0000021002500F00046B6F1004F02D11D4E5C
:1004F000F16901E01B4E7168C0F3034583B200F45B
:100500004016B6F5401F08D121F07061154E76688F
:1005100026F07066134F7E6012E000F48016B6F588
:10052000801F06D1032606FA05F4A14341F070614D
:1005300006E0460D360103FA06F6B14341F070615C
:1005400022B1460D360103FA06F6314300F00046AB
:10055000B6F1004F02D1034EF16101E0014E71602E
:10056000F0BD0000000001400246002093680B40EF
:100570000BB1012000E0002070474161704701612C
:100580007047C160704700BFFEE7000008B5012159
:100590001D2000F06DF801211348FFF79DFFFF209B
:1005A000ADF8000010208DF8030003208DF8020044
:1005B00069460E48FFF705FFF820ADF8000010204F
:1005C0008DF8030003208DF8020069460848FFF704
:1005D000F8FE69460648FFF7F4FE4FF6FF7104483F
:1005E000FFF7CFFF08BD000000043000000C014001
:1005F0000010014000BF011EA0F10100FBD17047B7
:1006000000BFFEE7704700002DE9F04706460F46A1
:1006100014460025A846A94600BF20E006F1B8010F
:100620002944C8B200F010FA07F14001C8B200F046
:100630000BFA4FF000080DE009EB04110A4A505C78
:1006400000F028FA09F1010000F0FF0908F10100AB
:1006500000F0FF08B8F1080FEEDB681CC5B2022DF0
:10066000DCDBBDE8F087000080010020704700005F
:1006700029B1064A92690243044B9A6104E0034A95
:1006800092698243014B9A6170470000001002405A
:10069000704710B500F002F810BD00000CB5002046
:1006A000019000903348006840F480303149086080
:1006B00000BF3048006800F4003000900198401CF2
:1006C0000190009818B90198B0F5A06FF1D12948B0
:1006D000006800F4003010B10120009001E000201B
:1006E00000900098012843D12348006840F0100092
:1006F000214908600846006820F0030008600846A9
:10070000006840F0020008601A48406819494860D3
:100710000846406848600846406840F48060486089
:100720000846406820F47C1048600846406840F461
:10073000E81048600846006840F08070086000BF1C
:100740000C48006800F000700028F9D009484068A3
:1007500020F00300074948600846406840F0020066
:10076000486000BF0348406800F00C000828F9D139
:100770000CBD000000100240002002407047000045
:1007800010B51348006840F00100114908600846A0
:100790004068104908400E494860084600680E4904
:1007A00008400B4908600846006820F48020086073
:1007B0000846406820F4FE0048604FF41F0088603F
:1007C000FFF767FF4FF000600449086010BD0000AC
:1007D000001002400000FFF8FFFFF6FE08ED00E009
:1007E00010B540F225511D4800F03EF810B31B48EB
:1007F00000F064F8C4B21A48008800F40040C8B998
:100800001748008800F4804060B10A2C03D0002013
:100810001349088020E01248008840F40040104945
:10082000088019E00D2C06D10D48008840F4804066
:100830000B49088010E00A480088C0F30D00094900
:100840000C5407480088401C054908800846008869
:10085000C72801DD0020088010BD000000380140DD
:10086000F4010020F801002070B5024600240023A6
:100870000025002040F66A16B14200D100BFC1F346
:10088000421501F01F03012606FA03F3012D02D1E0
:100890009689334006E0022D02D1168A334001E0EA
:1008A000968A33400C12012606FA04F41688344066
:1008B00013B10CB1012000E0002070BD0146888812
:1008C000C0F30800704700BFFEE7322001E0411E80
:1008D000C8B20028FBDC7047014600BF704700002B
:1008E00010B56420FFF786FE08210D48FFF747FE8C
:1008F00010210B48FFF743FE6420FFF77BFE3E20EC
:1009000000F0A2F8B82000F09FF8C02000F09CF89A
:10091000402000F099F83F2000F096F810BD00004C
:1009200000100140FFF732FEFFF7DAFFFFF71CFD72
:1009300008214448FFF721FE10214248FFF71FFE1F
:10094000002211461046FFF75FFE01221021002011
:10095000FFF75AFE022220210020FFF755FE032256
:1009600030210020FFF750FE08213648FFF707FE30
:1009700010213448FFF701FE042200210846FFF74A
:1009800043FE052210210020FFF73EFE0622202113
:100990000020FFF739FE08212A48FFF7EEFD10215D
:1009A0002848FFF7ECFD002211460220FFF786FCE5
:1009B000012210210220FFF781FC02222021104693
:1009C000FFF77CFC032230210220FFF777FC08218F
:1009D0001C48FFF7D4FD10211A48FFF7CEFD042272
:1009E00000210220FFF76AFC052210210220FFF7F8
:1009F00065FC062220210220FFF760FC072230213F
:100A00000220FFF75BFC08210E48FFF7B6FD10211E
:100A10000C48FFF7B4FD082200210420FFF74EFC2C
:100A2000092210210420FFF749FC0A22202104207A
:100A3000FFF744FC0B2230210420FFF73FFC00BFEE
:100A4000FEE700000010014010B50446FFF76AFC05
:100A500080210E48FFF791FD40210C48FFF78DFDE6
:100A60000B48006800F47F40204309490860FFF705
:100A70002CFF20210548FFF782FDFFF726FF2021EC
:100A80000248FFF77AFDFFF720FF10BD001001407C
:100A90000C0C014010B50446FFF744FC80210D48C2
:100AA000FFF76DFD40210B48FFF767FD0A4800681E
:100AB00000F47F40204308490860FFF706FF20212B
:100AC0000448FFF75CFDFFF700FF20210148FFF716
:100AD00054FD10BD001001400C0C0140FC0A000840
:100AE00000000020F80100006C010008640C000800
:100AF000F801002028070000C8010008211BF88821
:100B0000012AFF0552F81B1F08012A7F10149F803D
:100B1000F03B8082016009E2A2928A868280808412
:100B200040807F15404042CC1C40A09E24459EA0A2
:100B30002020180B3F908840432C10284641304914
:100B40002019012AFF054240347F201082FF2BE04C
:100B50009F6C39012208297D39012D4880403F6072
:100B6000100920D04C4344C81020199E3934100875
:100B70003F4044484740703A0F861009404454654E
:100B8000C664544417FC4444C44240580B20124AE3
:100B9000827F020A92601F2F180AF80C0B0808F8CF
:100BA00040308F5429E11B7F210129BF3A4361184E
:100BB000094040C05F5555D555012A5FA0280E2039
:100BC000603F251515FF904729112D43F0180A8025
:100BD00060F847404444447F041344401A01579A44
:100BE000401011200E020212620202FE0202423284
:100BF00002024A01015AFF0819611EE050484443AD
:100C00005B55485060C04BFE420142FE2B08F8ED98
:100C100012F03C203F212F1C08F888011A70101296
:100C2000201F030C3020E0101F1310E010080F10DD
:100C3000202020100F1A18C634080818292249301D
:100C40002CE808100E2D20232018503955111A1F9A
:100C50003023201F1B708841223897382021212201
:040C60001C00000074
:040000050800020DE0
:00000001FF
