:020000040800F2
:10000000F0070020B9010008432C00089F2B0008CE
:10001000412C0008C51B0008D52D00080000000079
:10002000000000000000000000000000472C000855
:10003000C71B000800000000452C0008492C0008E0
:10004000D3010008D3010008D3010008D301000840
:10005000D3010008D3010008D3010008D301000830
:10006000D3010008D3010008D3010008D301000820
:10007000D3010008D3010008D3010008D301000810
:10008000D3010008D3010008D3010008D301000800
:10009000D3010008D3010008D3010008D3010008F0
:1000A000D3010008D3010008D3010008D3010008E0
:1000B000D3010008D301000800000000D3010008AC
:1000C000D30100080000000000000000D301000878
:1000D00000000000D3010008D30100080000000068
:1000E000D3010008D3010008D301000800F002F892
:1000F00000F052F80AA090E8000C82448344AAF170
:100100000107DA4501D100F047F8AFF2090EBAE86D
:100110000F0013F0010F18BFFB1A43F0010318473B
:10012000AC310000CC310000103A24BF78C878C14F
:10013000FAD8520724BF30C830C144BF04680C60ED
:10014000704700000023002400250026103A28BF35
:1001500078C1FBD8520728BF30C148BF0B60704739
:10016000662902F0E587642900F086800020704748
:100170001FB59DE8030000F0C5FE00F05DFB040024
:100180000020002102F0A6FEE06000F06DFC1FBD23
:1001900010B500F0D2FC10BD00F03AFD1146FFF79B
:1001A000E7FF02F04BFE00F03FFE03B4FFF7F0FF65
:1001B00003BC01F039F800000948804709480047AE
:1001C000FEE7FEE7FEE7FEE7FEE7FEE7FEE7FEE707
:1001D000FEE7FEE704480549054A064B7047000064
:1001E000B52C0008ED000008F0010020F007002009
:1001F000F0030020F00300200FB4044910B503AA57
:10020000029800F007FB10BC5DF814FBE40000202E
:100210002DE9F0410E460446002020622046E168A8
:10022000884730B3252805D0D4E901219047206ABA
:10023000401CF2E7E168204600278847050018D0F7
:10024000A5F14100192802D820354FF40067324645
:10025000294620462760FFF783FF40B1012804D0DC
:10026000F61D26F007060836D8E7361DD6E72846DD
:10027000DAE7206ABDE8F0812DE9F0410646002466
:1002800010687529314616A510D0AFF300800028FC
:1002900002DA404213A507E031688A0701D512A5AA
:1002A00002E0490704D511A5012401E0AFF3008065
:1002B00000210A2206F1240709E0B0FBF2FCB0FBA2
:1002C000F2F302FB1C00303078541846491C002819
:1002D000F3D123462A463046BDE8F04100F032B85B
:1002E000000000002D0000002B0000002000000096
:1002F0004FF0000200B5134694469646203922BFBF
:10030000A0E80C50A0E80C50B1F12001BFF4F7AF09
:10031000090728BFA0E80C5048BF0CC05DF804EBEB
:10032000890028BF40F8042B08BF704748BF20F859
:10033000022B11F0804F18BF00F8012B7047704757
:10034000704770472DE9F0470D469946924604469E
:1003500000F124080168880604D5E06921F0100145
:10036000216000E00120A84201DD471B00E00027DA
:10037000A1697A1902EB0900081AA0612078C00669
:1003800002D42046AFF30080002608E0D4E9012122
:100390001AF806009047206A401C761C20624E45E1
:1003A000F4DB2078C0060AD52046AFF3008006E0D3
:1003B000D4E9012130209047206A401C2062381E79
:1003C000A7F10107F4DC07E0D4E9012118F80500E2
:1003D0009047206A401C2062281EA5F10105F3DC2D
:1003E0002046AFF300802078000602D50220BDE849
:1003F000F0870120FBE770472DE9FF4F0C461E46B2
:100400004FF0FF378BB0D2E90001DDF860800A9031
:100410008A46C1F30A5505B93D46002108464FF00A
:100420000000BAF1000F00F4400005DA00EB800094
:100430004FF4400101EA50004FEA9059B9F1010F21
:1004400000DDB9460A9850EA4A000ED044F6105032
:10045000A5F2FF3545432F14B8F1000F1ED07542A9
:10046000291E1EDDC9F100021CE0B8F1010F4FF09A
:10047000000001D0302103E0F24305E02154401C8C
:10048000B042FBDB30460022002121540B99C1F819
:100490000880C1E900200FB0BDE8F08FBD1B6D1CC6
:1004A000DEE74A4600DA694206A800F067FA06ABC2
:1004B00093E8070003AB83E8070050460A9900F071
:1004C0004FFF8DE80700A0F500501F3800900398FB
:1004D000002D0ADD42F21F014A460844002303A909
:1004E0000390684601F0B8F909E0A0F500504A46CB
:1004F0001F38002303A90390684601F0C2F98DE874
:1005000007000004000C03D04FF0FF30410800E06A
:100510001046B8F1000F03D00022009215461EE0ED
:10052000751E05D400F08CF9303262556D1EF9D578
:10053000B3460122084302D000227F1C04E0207849
:10054000302801D100227F1E002A099784D01DE0A7
:10055000112D07DA00F074F9303262556D1C50EA43
:100560000102F5D1084302D00098C8B10EE0002185
:10057000681E05E0235C625C63542254401E491CE3
:100580008142F7DBAB46A81B401E0990002004F80F
:100590000B000B98099AC0F80880C0E9002B7AE795
:1005A00011264FF0000857E72DE9F04F8846044622
:1005B000D21D22F0070191B0D1E90001CDE90A0175
:1005C00002F009FC02460B98C00F01D02D2007E075
:1005D0002068810701D52B2002E0202101EAC0001C
:1005E000032A099001D0072A05DB0346414620462D
:1005F00000F084F90BE12078800601D5E06900E085
:100600000620B8F1650F814606D0B8F1660F18D004
:10061000B8F1670F70D131E00020B9F1110F0090EF
:1006200001DB112301E009F101030AAA01A90CA8C9
:10063000FFF7E2FEDDE90C70002609F101058346B3
:1006400047E001204B4600904FF000470AAA01A95D
:100650000CA8FFF7D1FEDDE90DB00C995D46002630
:1006600010B909F101000D18B9EB050003D4C0F170
:10067000FF3609F10105A5EB09002BE0B9F1010FE7
:1006800001DA4FF001090020B9F1110F009048463E
:1006900001DD112300E003460AAA01A90CA8FFF717
:1006A000ABFEDDE90C704D4600268346207800073E
:1006B0000AD4AB4500DA5D4601A8012D04DD4119DD
:1006C00011F8011C302907D04F4502DA17F1040F49
:1006D00004DA012082460FE06D1EEEE7002F02DCF7
:1006E000ED1B3E4403E0781CA84200DD7D1CB81BD6
:1006F00000F1010A4FF000472078000703D4AA4513
:1007000001DB4FF0FF3A0021B7F1004F0DF1430834
:100710008DF8431024D002202B23002F01DA7F42D2
:100720002D230A21021EA0F1010000DC5FB197FB1E
:10073000F1FC97FBF1F201FB1C7C17460CF1300C2D
:1007400008F801CDEEE7A8F1010003702188090542
:1007500001D5452100E06521A0F1010800F8011C48
:1007600009980FA9A1EB0807FF1D00B1012041194D
:1007700001EBEA70A1693844081A401EA061207894
:10078000C00602D42046AFF30080099828B1D4E90E
:1007900001219047206A401C20622078C00622D5A3
:1007A0002046AFF300801EE0002E04DBB34502DDDF
:1007B00001A8805D00E03020D4E901219047206A43
:1007C000401C2062761CAAF101005FEA000A0AD1EF
:1007D00000F032F8C0680168405CD4E9012190471C
:1007E000206A401C2062281EA5F10105DCDC07E020
:1007F000D4E9012118F8010B9047206A401C2062BF
:10080000381EA7F10107F3DC2046AFF30080032078
:1008100011B041E6074B70B50D467B4400F05BF824
:100820000446284600F01CF910B14FF0FF3070BDAF
:10083000204670BD0326000000487047AC01002030
:1008400030B5B0F10A024FEA900E71F100034EEAA2
:10085000817EB0EB0E0061EB91014FEA101E4EEA73
:10086000017E10EB0E0041EB11114FEA102E4EEA03
:10087000016E10EB0E0041EB11214FEA104E4EEAD3
:10088000014E10EB0E0041EB1141401841F1000107
:100890004FEAD00040EA41704FEAD10110EB8005E9
:1008A0004FEA810444EA907444EB01046D1944EB6F
:1008B0000404521BA3414FF0000348BF0A3200D585
:1008C00030BD401C41F1000130BD000001694A1CEF
:1008D00002610878704700B58FB0CDE90131002181
:1008E000059105497944CDE9031011466846FFF7A3
:1008F0008FFC0FB000BD0000E5FFFFFF2DE9F041C8
:100900001F46044603260168072A01F4006004DB41
:1009100008B116A505E016A503E008B115A500E08D
:1009200015A521F010002060A069C01EA0610FB1C4
:10093000401EA0612046AFF300804FB1D4E90121F1
:1009400038469047206A401C2062C01C206206E0A6
:10095000206AFAE7D4E9012115F8010B9047761EC9
:10096000F8D22046AFF30080BDE8F0814E414E0042
:100970006E616E00494E4600696E66002DE9F047D3
:10098000814616468AB0354878440DC88DE80D007A
:1009900032487844801C03AC0DC884E80D0041F651
:1009A0009B300844372190FBF1F290FBF1F5A5F163
:1009B000800501FB12041B3C02D56442012000E0CB
:1009C0000020DFF898A080460027FA44AAF1BE0A6A
:1009D0000EE0E0070AD03246684607EB47010123E4
:1009E0000AEB810100F04DFF8DE8070064107F1CC9
:1009F000002CEED1194F7F44AE3F19E0E80715D027
:100A000007EB04100DF1180A90E80E008AE80E00BA
:100A1000C068F04201D1981908903246012306A916
:100A200003A800F02EFF03AB83E807006D10641CE1
:100A3000002DE3D14FF0010332466946B8F1000FB3
:100A400003A802D000F008FF01E000F01AFFC9E996
:100A50000001C9F808200AB0BDE8F0871C29000091
:100A6000007B00F08000704710B542485421FFF72A
:100A70003FFC41485421FFF73BFC40485421FFF71D
:100A800037FC3F493B483C4A3F4B08603D490A60C0
:100A90003A491960531C0365481C1065012008651C
:100AA0003B48344A39A1784400F022F920B938484B
:100AB00078440A3800F0C1F937482F4A35A1784404
:100AC00000F016F920B9344878440A3800F0B5F936
:100AD00032482A4A2FA1784400F00AF920B92F4859
:100AE00078440A3800F0A9F940232248DC000021AC
:100AF000224600F0D9F820B125487844543800F057
:100B00009CF91D4822464023002100F0CDF820B179
:100B100021487844543800F090F9184822461023B0
:100B2000002100F0C1F8002806D01C487844BDE838
:100B30001040563800F081B910BD104870B5006DF6
:100B400020F001040B4800F049F90B4800F046F989
:100B50000A4800F043F909E0206D20F00105204625
:100B600000F03CF9204600F078F82C46002CF3D138
:100B700070BD000090000020E4000020380100203B
:100B80001000002014000020180000207200000057
:100B9000162800007700000002280000EE27000061
:100BA0000EB5CDE9000100F01FFB0290694601205F
:100BB000ABBE0EBD08B5694600900220ABBE08BDB5
:100BC0001FB58DE8070069460520ABBE04B010BD17
:100BD0001FB58DE80F0069460620ABBEF6E708B5E5
:100BE000694600900920ABBE08BD1CB5CDE90001E7
:100BF00069460A20ABBE1CBD704708B56946009027
:100C00000C20ABBE08BD0000004870478C010020DE
:100C10007546FFF7F9FFAE4605006946534620F0DA
:100C20000700854618B020B5FFF7D4FABDE820408C
:100C30004FF000064FF000074FF000084FF0000B98
:100C400021F00701AC46ACE8C009ACE8C009ACE84B
:100C5000C009ACE8C0098D46704770B50446051F51
:100C600000F034F90068002C14BF446870BD002CFB
:100C700018BFAC423CBF20466468F8D301680A182C
:100C8000AA4218BF456003D12A6805461144016095
:100C900028684119A1421CBF6C6070BD6168696021
:100CA00021680844286070BD70B5C468A50713D0DA
:100CB000650211D4B2F5807F09D0B2F5007F06D06D
:100CC000B2F5806F08D1012300F1240106E05D1E1A
:100CD0006FF07F46B54201D3012070BD0161C36151
:100CE000416024F470611143C160002070BD0000B8
:100CF0002DE9F0410C4607461646104600F06EF806
:100D00002078611C61280AD0722802D077283CD153
:100D100002E00125002405E00225042402E0082465
:100D200048F2020511F8010B2B2806D0622809D0E1
:100D300011F8010C74280AD00BE045F0030544F0CB
:100D40000204EFE745F0040544F00104EAE744F04B
:100D5000100438462146FFF723FF411C15D000211F
:100D6000316171604FF40071F560F16170612007CD
:100D700004D530460222002100F022F9306D40F007
:100D8000010030653046BDE8F0810020FBE72DE929
:100D9000F0410D460646104C206DC10704D04108B5
:100DA00004D020F00104F7E722460EE0542000F0C2
:100DB000D8F807000ED0206D47F0010108435421F8
:100DC00020653846FFF794FA3A4629463046BDE892
:100DD000F0418DE70020D6E7900000202DE9F04794
:100DE00004464FF000094FF0FF37C568D4E9048688
:100DF000A80707D0204600F093F93046FFF7DAFE47
:100E0000002802DA3846BDE8F087280502D54046BA
:100E1000FFF723FF4C212046FFF76AFA206D20F0F0
:100E2000010020654846EEE710B50446AFF30080A8
:100E30002046BDE81040FFF7B8B910B500F0BAF988
:100E4000BDE8104000F0B0B94FF0013C50F8042B61
:100E500051F8043B9A4221D1A2EB0C03934313EACD
:100E6000CC1317D150F8042B51F8043B9A4215D1FA
:100E7000A2EB0C03934313EACC130BD150F8042BD1
:100E800051F8043B9A4209D1A2EB0C03934313EAB5
:100E9000CC13DBD04FF00000704700BFD01A01BA6E
:100EA000B1FA81F101F0180122FA01F0CB40C1F151
:100EB0002001DBB2C0B2C01A2CFA01F3D11A91435F
:100EC00011EAC311E6D1704770470000004870472F
:100ED00094010020704770477047704738B504464A
:100EE0000A4600206946AFF30080002808BF38BDDD
:100EF00002460099204600F0A4F9012038BD0120E7
:100F000000F0F3B9F8B5AFF30080054600200C46B9
:100F1000102000BF0646A819A0420DD932466946E6
:100F20000020AFF30080070008BF00F0DEF9009852
:100F3000A04218BF0546C419FFF7C8FF0560074661
:100F4000F01D20F007004619284600F073F9B4425E
:100F500008BFF8BDA21B31463868BDE8F84000F074
:100F600070B970B50646FFF7B1FF056806F10B00D2
:100F700020F00704B4429CBF002070BD2B466A6875
:100F8000BAB11068A04210D304F1080188423CBFF6
:100F90005068586007D35168101941601168091BE7
:100FA000016058601460101D70BD13465268002A1D
:100FB000E7D121462846FFF791FF0028DED170BD1A
:100FC0002DE9F041044616460D464769007B80072F
:100FD0002ED03846FFF703FE50BB3EB3012E02D0A1
:100FE000022E25D104E0204600F045F905441DE01D
:100FF0003846FFF702FEE168002841F01001E16089
:1010000005DA204600F058F80120BDE8F081C90358
:101010000BD56268E16A914200D81146A269114479
:101020002269891A814200DD08460544002D01DA53
:101030000220EAE7E16A6068E268814206D2910331
:10104000E06203D522F4003141F01002A6690027C6
:10105000AE4213DCE16A814201D90B4600E003464F
:1010600003EB060C2369ACEB030CAC4506DD8142B7
:1010700001D98C4600E084469C4505D1A7602760D5
:1010800042F02000A5620DE0AD1BE669AE1B814277
:10109000A66000D90846C01A281A20605819606056
:1010A00022F0200003490840E060002084F84870E6
:1010B000ABE70000BFCFD7FFC16821F4001141F0BA
:1010C0008001C16000218160016070472DE9F04717
:1010D000814614460E464FF0FF383248D5685769AE
:1010E000054209D03846A169FFF77FFD002811DBD2
:1010F0002C48C0430540E5602B46324649463846F9
:10110000FFF75EFDA16920F00042B21A11440028E9
:10111000A16103D02046FFF7CFFF4046BDE8F0872E
:1011200070B504460569C06A6168884200D80846FF
:10113000E16821F42011E160C90312D5A84208D06A
:101140002246411B2846FFF7C1FF10B14FF0FF3088
:1011500070BD0020E562C4E90150E06820F48030F1
:10116000E060002070BD10B50446C06820F020008B
:10117000E060A16AA06988420DD02046FFF7D0FF49
:10118000E06820F4405040F01000E060A06AA061E8
:101190002069E062606044F24001E0688843E060FA
:1011A00010BD000010000200002801D000F03CB883
:1011B0007047000010B5014602A000F07DF8012044
:1011C00010BD000053494752545245443A205265DD
:1011D0006469726563743A2063616E2774206F706E
:1011E000656E3A200000000010B5431C02E010F8C4
:1011F000011B71B18107FAD14FF0013202C88C1A7C
:101200008C4314EAC211F9D0C01A0A0603D0C01EDA
:1012100010BDC01A10BD0A0401D0801E10BD090205
:10122000FCD0401E10BD000001491820ABBEFEE7F7
:101230002600020000210160C0E901107047102063
:101240007047034640688C46002818BF88423CBF60
:1012500003464068F8D318681844884207D00CF158
:10126000030020F00700001D411A521A0146081D14
:101270000A60FFF7F2BC10B50146C268900703D0C0
:10128000900607D5886A0AE000F03EF80121016067
:10129000881E10BD8B69486818440B69C01A91F804
:1012A00048301BB191F84910401A10BD1103FCD50C
:1012B0000028FADD401E10BD70B505460C460A2018
:1012C00000E06D1C00F018F835B128780028F8D13E
:1012D00002E0641C00F010F814B120780028F8D166
:1012E000BDE870400A2000F007B810B500F010F813
:1012F000BDE81040FFF758BF08B569468DF80000FB
:101300000320ABBE08BD0000004870478C010020E0
:1013100010B5012805D0002103A0FFF7CDFF012063
:1013200010BD09A1F8E7000053494752544D454DFF
:101330003A204F7574206F662068656170206D6576
:101340006D6F7279000000003A2048656170206D71
:10135000656D6F727920636F727275707465640069
:101360005FEA400C08BF91F0000F4FEA8C234FEA70
:10137000C12243EA51514FEA1C5018BF00F5F0401A
:101380004FEA300018BF41F000415FEA6C5C00F0AA
:101390002980BCF1FF3F08BF40F080407047130C2C
:1013A00006BF12044FF0100C4FF0000C130E04BFD8
:1013B00012020CF1080C130F04BF12010CF1040C03
:1013C000930F04BF92000CF1020CD30F04BF520024
:1013D0000CF1010C11464FF00002A0F11F00A0EB30
:1013E0000C00704711F0004F08BF704731F000410A
:1013F0003FF4D5AF0B0C06BF09044FF0100C4FF0B3
:10140000000C0B0E04BF09020CF1080C0B0F04BFFB
:1014100009010CF1040C8B0F04BF89000CF1020CC4
:10142000CB0F04BF49000CF1010CCCF12003A0EB61
:101430000C0022FA03F302FA0CF241EA030100F174
:101440000100704720F07F4C80EA030023F07F47C3
:10145000ACEB070303F57C5300F0004003F1FF03FE
:101460002DE980494FEA154B09B44FEA144325EAA8
:101470000B4E24EA03480FF2042606EB1327490813
:101480003E785FEA320203FB0667C7F5000707FBF9
:1014900006F64FEA54374FEAD64606F1020607FB36
:1014A000066CCCF1005C4FEA1C472CEA074C07FBAA
:1014B00006F40CFB06F504EB15464FEA961634BF0E
:1014C00000204FF000404FEAD13706FB07FC4FEAFF
:1014D0001C4C0CFB0BF7D21B03FB0CF761EB070159
:1014E0000CFB0EF7B0EB074072EB17420CFB08F752
:1014F00034BFA2EB0742B2EB074261EB17414FEA60
:101500000C444FEA910706FB07FC4FEA1C4C0CFB0E
:101510000BF7B0EBC74072EB573203FB0CF734BF4D
:10152000A2EBC742B2EBC74261EB57310CFB0EF79F
:10153000B0EBC70072EB57720CFB08F734BFA2EB9D
:10154000C702B2EBC70261EB5771039F4FEA81619B
:1015500041EA921104EBCC044FEAD1374FEA8262A0
:1015600006FB07FC42EA90124FEA80604FEA1C4CEF
:101570000CFB0BF7D21B03FB0CF761EB07010CFB19
:101580000EF7B0EB074072EB17420CFB08F734BFC5
:10159000A2EB0742B2EB074261EB17414FEA8C55D1
:1015A0004FEA910704EB9C2406FB07FC4FEA1C4C16
:1015B0000CFB0BF7B0EBC74072EB573203FB0CF799
:1015C00034BFA2EBC742B2EBC74261EB57310CFB11
:1015D0000EF7B0EBC70072EB57720CFB08F734BF85
:1015E000A2EBC702B2EBC70261EB577115EB4C25BA
:1015F0004FEA816141EA92114FEA82624FEAD137A4
:1016000042EA901206FB07FC44F100044FEA8060B6
:101610004FEA1C4C0CFB0BF7D21B03FB0CF761EBE6
:1016200007010CFB0EF7B0EB074072EB17420CFB07
:1016300008F734BFA2EB0742B2EB074261EB174158
:1016400015EB1C154FEA813141EA92414FEA823293
:1016500042EA90424FEA80304FEA0C7644F10004AF
:1016600048EA03434EEA0B484FF0000EB2EB080C79
:1016700071EB030724BF624639464EEB0E0E4FF066
:10168000000B0018524149414BEB0B0BB2EB080C1D
:1016900071EB03077BF1000B24BF624639464EEB2A
:1016A0000E0E4FF0000B0018524149414BEB0B0B53
:1016B000B2EB080C71EB03077BF1000B24BF624611
:1016C00039464EEB0E0E51EA020718BF46F00106EE
:1016D00016EB0E7655F1000254F1000103D5BDE87A
:1016E0008901BDE80088BDE88901BDE80048B61958
:1016F000524141EB0101A3F10103704780807F7EDD
:101700007D7C7B7A79787776767574737271717077
:101710006F6E6E6D6C6C6B6A6A6968686766666529
:101720006464636362616160605F5F5E5E5D5D5CB7
:101730005C5B5B5A5A595958585757565655555528
:101740005454535352525251515050504F4F4F4E88
:101750004E4D4D4D4C4C4C4B4B4B4A4A4A494949D6
:101760004848484747474746464645454544444418
:10177000444343434342424242414141002B9C4641
:1017800030D477002BD01CB54FEA370703B44FF0A5
:1017900010004FF01001BAF1000F06D0BCF1000F9D
:1017A000DCBF40F0080040F008014FF000000FBC23
:1017B000BDE810400BF1010BBBF1010F08BF5FEA60
:1017C000170722BF12F1010211F101014FF0004190
:1017D00043F1000300F0004043EA00007047F9D3F2
:1017E0005708D0E746EA064613F1400F4FEA16467F
:1017F0001FDD13F1200FDFBF16430A4600212033FF
:101800005B42BED0C3F1200746EA064602FA07F75C
:101810004FEA164646EA0706C3F1200722FA03F20A
:1018200001FA07F721FA03F14FF0000342EA070239
:10183000A7E746EA020646EA06464FEA164646EAA1
:101840000106BCBF46EA0646360C4FF000034FF0D7
:1018500000024FF0000194E72DE9804C9A46934630
:1018600070B491E8380007C831EA400C48BF34EA48
:10187000430C03D5FFF7E6FDFFF780FFF0BCBDE8A2
:10188000008C2DE9804C9A46934670B491E838005C
:1018900007C810F0804F08BF13F0804F03D100F04D
:1018A00005F8FFF76BFFF0BCBDE8008C20F07F4728
:1018B00080EA030023F07F4C07EB0C03A3F57C5375
:1018C00000F00040A3F1FE0392F0000F00F0B3809F
:1018D00095F0000F00F077802DE901494FEA1140A3
:1018E0004FEA144621EA004800FB06FC24EA0647BA
:1018F00008FB06F607FB08F800FB07F718EB06489D
:101900004CEB164C4FEA124B18EB07484FEA1546C2
:101910004CEB174022EA0B4E0BFB06FC25EA064770
:101920000EFB06F607FB0EFE0BFB07F71EEB064E43
:101930004CEB164C4FF000061EEB074E4CEB174BD2
:1019400018EB0B0840F1000018EB0E0B58EB0008E9
:1019500040F100008F1A4FF000013CBFC943661BE5
:1019600014BFB5EB040C00213CBFC943F61B4FEA82
:1019700017444EEA8E0E27EA04454FEA1C4704FB43
:1019800007622CEA074C05FB07F70CFB05F604FB86
:101990000CFC16EB074642EB174216EB0C4642EBEB
:1019A0001C421BEB060658EB0202414146EA9E062A
:1019B00001D5BDE80189B619524141EB0101A3F1FE
:1019C0000103BDE801894FEA14454FEA114724EAB3
:1019D000054621EA074C05FB07F406FB07F70CFB5D
:1019E00006F105FB0CFC11EB074144EB17444FEAF1
:1019F000124711EB0C4144EB1C4422EA074C05FB57
:101A000007F206FB07F70CFB06F605FB0CFC16EBD2
:101A1000074642EB174216EB0C4642EB1C456A1890
:101A200054F1000148BF7047B619524141EB010122
:101A3000A3F10103704795F0000F37D04FEA114230
:101A40004FEA144721EA024624EA074C02FB07F159
:101A500006FB07F70CFB06F402FB0CFC14EB074437
:101A600041EB17414FEA154714EB0C4441EB1C4185
:101A700025EA074C02FB07F506FB07F70CFB06F609
:101A800002FB0CFC16EB074645EB174516EB0C4624
:101A900045EB1C42121951F1000148BF7047B619BD
:101AA000524141EB0101A3F1010370474FEA144594
:101AB0004FEA114724EA054621EA074C05FB07F1E6
:101AC00006FB07F70CFB06F24FF0000605FB0CFCCB
:101AD00012EB074241EB174112EB0C4251EB1C4158
:101AE00048BF7047921841EB0101A3F10103704711
:101AF00070B5044600688168C943C90717D1816879
:101B000021F00101816000F08DFB05460AE000BF75
:101B100000F088FB401B022804D920688068C0437D
:101B2000C00706D020688068C043C007F0D00020FE
:101B300070BDA06A40F01000A062E06A40F00100B1
:101B4000E062012070BD0000F8B500260446009652
:101B500000688168C943C9072DD0816841F001013F
:101B60008160164816490068B0FBF1F000E0401EA5
:101B700000900028FBD100F055FB054616E000BFA1
:101B800000F050FB401B022810D920688068C04339
:101B9000C0070BD0A06A40F01000A062E06A40F0DD
:101BA0000100E06284F824600120F8BD20688068AC
:101BB000C043C007E4D10020F8BD00000C000020A5
:101BC00040420F00FEE7704772B6FEE7F8B500240A
:101BD000009490F824202546012A12D0012280F892
:101BE00024204A681F23072A0DD20668776B521EED
:101BF00002EB820293409F430B6893401F4377633D
:101C000019E00220F8BD06680D2A0AD2376BD21FF0
:101C100002EB820293409F430B6893401F4337635C
:101C200009E0F76A0D3A02EB820293409F430B688A
:101C300093401F43F7620A68072306680A2A0AD3FB
:101C4000F7680A3A02EB420293409F438B68934045
:101C50001F43F76008E0376902EB420293409F435D
:101C60008B6893401F4337610A68102A01D0112AFC
:101C700020D1124B02689A4217D193681B0219D4E3
:101C8000936843F4000393600968102912D10C494A
:101C90000C4A0968B1FBF2F101EB8101490000E057
:101CA000491E00910029FBD104E0816A41F0200126
:101CB0008162012480F824502046F8BD00240140B0
:101CC0000C00002040420F000068C06C704700000C
:101CD0002DE9F0414FF0000704003D467ED0A06A98
:101CE000002628B9E66284F82460204600F07EF8D9
:101CF0002046FFF7FDFEA16AC90600D420B1A06A04
:101D000040F01000A06269E0A16A21F4885141F01E
:101D10000201A1626268E169237B0A4347EA430149
:101D20000A43A1684FF48077B94209D0012907D04E
:101D30005FF0000194F814C0BCF1010F02D00AE07A
:101D40003946F7E7F3B1A36A43F02003A362E36ADD
:101D500043F00103E3622368D3F804C02CF4694C18
:101D60004CEA010CC3F804C021688B68DFF870C02E
:101D700003EA0C0313438B60A168B9420BD001291D
:101D800009D00CE0DFF85CC0A3690CEB43330B43D4
:101D900043F40061DFE7218A0D05A5F58015216870
:101DA000CB6A23F470032B43CB62216889680E4B06
:101DB0001940914208D1E662A16A21F0020141F086
:101DC0000101A162BDE8F081A06A20F0020040F0AC
:101DD0001000A062E06A40F00100E0620120F1E73B
:101DE000FDF7E1FF00E0FFFFFE0E1FFF00B585B02D
:101DF0000021009101910291039100680E498842EF
:101E000018D10E48816941F400718161816901F442
:101E100000710491816941F0040181618069694622
:101E200000F0040004900220009003200190044878
:101E300000F018F905B000BD002401400010024078
:101E4000000801402DE9F84300270D46044600979D
:101E500000F0E8F9804620688168C90508D5A06AC5
:101E600040F02000A06284F824700120BDE8F883CF
:101E70004168C90503D4C06A10F4700F2AD002204B
:101E800000F060FA3B490968B1FBF0F6206803698D
:101E900039490B424FEA61014FEAA1121FD1C368D1
:101EA0004FEA611C13EA0C0F19D103690B4225D1CB
:101EB000C068104222D1142023E0681C0AD02DB142
:101EC00000F0B0F9A0EB0800A84203D92068006830
:101ED000800725D5206800688007EED52DE00369CE
:101EE0000B4202D1C168114206D0026923490A425D
:101EF00006D1C068084203D1542002E0292000E046
:101F0000FC204643009816E0681C11D02DB100F06B
:101F100089F9A0EB0800A8420AD90098B04207D27C
:101F2000A06A40F00400A06284F8247003209DE7BA
:101F30000098401C0090B042E6D321686FF0120078
:101F40000860A06A40F40070A06220688068C0F356
:101F5000424007280CD1207B50B9A06A20F4807041
:101F6000A062A06AC00403D4A06A40F00100A0628D
:101F700000207BE70C000020244992244992240091
:101F800070B5044690F8240001280DD0012084F893
:101F900024002046FFF7D8FD02004FF0000005D0D6
:101FA00084F82400104670BD022070BDA16A40F282
:101FB0000123994341F48071A1621F4D23681F4999
:101FC000AB4218D10E6816F4702F14D0A66A46F4EE
:101FD0008016A6620E68760505D5A66A26F4005618
:101FE00046F48056A662A66AF6040AD5E66A26F08A
:101FF0000606E66206E0A66A26F48016A6625E6819
:10200000E9E7E06284F824006FF0020018602068BD
:102010008368C3F34243072B05D1A84208D109685E
:1020200011F4702F04D0816841F480118160B9E708
:10203000816841F4A001F9E700280140042401402F
:1020400070B5044600F0EEF80546601C02D0044866
:102050000078044400F0E6F8401BA042FAD370BDBB
:10206000000000202DE9F84FDFF89C91002409F1D1
:10207000040A0AF1040B23460F270BF1040EBBE000
:102080000125A5402A40AA4276D1DFF880C14E68DA
:10209000A6EB0C0866452BD00DDC032E34D005DCF6
:1020A00036B3012E19D0022E2FD11BE0112E16D0DF
:1020B000122E2AD119E0B8F5881F19D006DCB8F520
:1020C000803F15D0B8F5801F1FD111E0B8F5001F73
:1020D0000ED0B8F5041F18D10AE0CB6815E0CB6824
:1020E0001B1D12E0CB6808330FE0CB680C330CE00B
:1020F0008B682BB1012B4FF0080303D0456104E03E
:10210000042302E0056100E00023FF2A01D806460F
:1021100001E000F104064FEA840501D9A5F120058C
:10212000D6F8008007FA05FC28EA0C0803FA05F542
:1021300048EA0508C6F800804D68ED005BD5344DCF
:10214000AE6946F00106AE61AD6924F0030605F004
:10215000010500952F4D06EB050CDCF80850A6078D
:10216000360F07FA06F825EA0805DFF8AC80404587
:1021700003D14FF0000810E03DE0DFF8A0804045BB
:1021800002D14FF0010808E0DFF89480404502D109
:102190004FF0020801E04FF0030808FA06F848EA99
:1021A0000508CCF808804D68D9F80060ED034D466D
:1021B00001D5164300E096432E604D68DAF80060C2
:1021C000AD03554601D5164300E096432E604D6899
:1021D000DBF80060ED025D4601D5164300E0964352
:1021E0002E604D68DEF80060AD02754601D51643DD
:1021F00000E096432E60641C0A6832FA04F57FF40E
:102200003FAFBDE8F88F000000040140000011104E
:10221000001002400000014000080140000C014095
:102220000010014001488068704700000000002055
:1022300002488168027811448160704700000020E4
:10224000074810B5016841F010010160032000F05B
:1022500067F80F2000F006F800F024F8002010BD09
:102260000020024070B50D4D04464FF47A71287875
:10227000B1FBF0F00A490968B1FBF0F000F0B8FBDF
:1022800048B9102C07D200222146501E00F028F831
:1022900000206C6070BD012070BD000000000020B7
:1022A0000C0000200C4808B5816941F001018161F2
:1022B000816901F001010091C16941F08051C16162
:1022C000C06900F0805000900448416821F0E0614E
:1022D00041F08061416008BD0010024000000140F3
:1022E000F0B40E4B1B680C46C3F30223C3F1070581
:1022F000042D00D90425191D072901D2002300E06F
:10230000DB1E012606FA05F1491E214099409E4038
:10231000761E16403143F0BC00F071BD0CED00E0BC
:10232000064900F0070208684FF6FF03184040EA2C
:102330000220034A10430860704700000CED00E0E3
:102340000000FA0510B529A401461DCC86B08DE821
:102350001D002AA02A4C006804900020012923D0E7
:1023600002293AD010291DD161682268D20119D5FD
:10237000C1F38342C9031DF8020009D5616804AAAC
:10238000C1F34041515C1F4AB2FBF1F1484301E007
:102390001D4948436168490204D440005FF00301CD
:1023A000B0FBF1F006B010BD226AC2F30121012991
:1023B00003D1920701D5C803F4E7022905D1626A67
:1023C000920702D549F64040ECE70329EAD121689B
:1023D0008903E7D54FF22440E4E700F033F9616860
:1023E000C1F38131491C4900DAE70000020304050A
:1023F000060708090A0B0C0D0E0F10100102000051
:102400000010024000127A0000093D002DE9F84357
:1024100005460078354CC00754D0E0690026C0005E
:1024200008D4E06940F08050E061E069012600F0E6
:10243000805000902E480168C90512D4016880467A
:1024400041F480710160FFF7EDFE074605E000BF33
:10245000FFF7E8FEC01B642823D8D8F80000C005A9
:10246000F6D5206A10F4407021D0A98801F440719B
:1024700081421CD0206A1F49012220F440700A606A
:1024800000220A602062C00711D0FFF7CBFE07468A
:1024900041F2883808E000BFFFF7C4FEC11B414588
:1024A00002D90320BDE8F883206A8007F4D5206AAA
:1024B000696820F44070084320621EB1E06920F092
:1024C0008050E0612878800705D56068A96820F40D
:1024D0004040084360602878C00605D56068E96818
:1024E00020F48000084360600020DBE70010024019
:1024F00000700040400442422DE9F0470F460500BD
:1025000061D0434E306800F00700B84209D230680D
:1025100020F0070038433060306800F00700B84210
:1025200051D128683B4C810712D5400703D560681C
:1025300040F4E06060602878000703D5606840F4EC
:10254000605060606068A96820F0F0000843606037
:102550002878C00728D06868012810D02168022890
:1025600010D0890700292EDA616821F003010143A8
:102570006160FFF757FE804641F288390DE021681F
:102580008903EFE78901EDE7FFF74CFEA0EB0801B7
:10259000494502D90320BDE8F0876068696800F00A
:1025A0000C00B0EB810FEFD1306800F00700B842AB
:1025B0000BD9306820F0070038433060306800F0F5
:1025C0000700B84201D00120E5E72878400705D58B
:1025D0006068E96820F4E0600843606028780007DC
:1025E00006D56068296920F4605040EAC100606047
:1025F00000F038F86168084AC1F30311515CC84023
:102600000649086006480068FFF72CFE0020C2E774
:102610000020024000100240143200080C0000208C
:10262000040000200448054900684968044AC1F3D1
:102630000221515CC84070470C000020001002408D
:10264000243200080448054900684968044AC1F377
:10265000C221515CC84070470C00002000100240AD
:102660002432000812A185B00FC98DE80F0014A014
:10267000144A006804905168134801F00C03042BBD
:1026800010D0082B0ED1C1F38343C9031DF80300FA
:102690000AD5516804AAC1F34041515C0A4A50432B
:1026A000B0FBF1F005B0704708494843FAE7000075
:1026B00002030405060708090A0B0C0D0E0F101083
:1026C000010200000010024000127A0000093D00E3
:1026D0002DE9F84F040070D02078C04DC00749D0D4
:1026E0006868C0F38100012807D06868C0F38100E2
:1026F000022809D16868C00306D52868800339D547
:1027000060680028E7D035E06068B0F5803F0BD006
:1027100010B1B0F5A02F11D0286820F480302860C7
:10272000286820F4802002E0286840F48030286087
:10273000606890B1FFF776FD06460AE0286840F42D
:1027400080202860F0E700BFFFF76CFD801B642845
:1027500073D828688003F7D50CE0FFF763FD0646C1
:1027600005E000BFFFF75EFD801B6428F0D82868F5
:102770008003F7D420789A4E80074FF001094FF07C
:10278000000839D5686810F00C0F07D06868C0F3EE
:102790008100022809D16868C00306D42868800730
:1027A00014D52069012808D110E02069B0B1C6F81D
:1027B0000090FFF737FD074605E00AE1FFF732FD1D
:1027C000C01B0228C4D828688007F7D5286861692B
:1027D00020F0F80040EAC10028600DE0C6F8008053
:1027E000FFF720FD074604E0FFF71CFDC01B022891
:1027F00023D828688007F7D4207800072CD579489B
:10280000A169D9B1C0F80090FFF70CFD074604E0BC
:10281000FFF708FDC01B02280FD8686A8007F7D5AC
:1028200071484FF4FA510068B0FBF1F0009000BF1E
:102830000098411E0091FAD20EE080E0C0F80080BE
:10284000FFF7F0FC074604E0FFF7ECFCC01B022892
:1028500075D8686A8007F7D42078400760D5E869A2
:102860000027C00008D4E86940F08050E861E869BA
:10287000012700F0805000905C480168C90513D41E
:102880000168834641F480710160FFF7CBFC82460A
:1028900006E000BFFFF7C6FCA0EB0A0064284ED894
:1028A000DBF80000C005F5D5E06801280AD008B1C2
:1028B000052813D0286A20F001002862286A20F039
:1028C000040002E0286A40F001002862E06841F25A
:1028D000883B98B1FFF7A6FC82460BE0286A40F0DF
:1028E00004002862EEE700BFFFF79CFCA0EB0A01A2
:1028F00059455AD8286A8007F6D50CE0FFF792FCB4
:10290000824605E0FFF78EFCA0EB0A0159454CD842
:10291000286A8007F6D41FB1E86920F08050E8618A
:10292000E06988B36968C1F38101022944D00228B3
:10293000C6F8608004D0FFF775FC044638E034E048
:10294000FFF770FC074604E0FFF76CFCC01B022891
:102950002BD828688001F7D4206AB0F5803F05D1D4
:102960006868A16820F4003008436860D4E9080171
:102970000843696821F4741108436860C6F86090E0
:10298000FFF750FC044606E025E000BFFFF74AFCD5
:10299000001B022809D828688001F7D51BE000BF7A
:1029A000FFF740FC001B022802D90320BDE8F88F86
:1029B00028688001F4D40EE00128F7D06868226A04
:1029C00000F48031914204D1616A00F470108842B1
:1029D00001D00120EAE70020E8E7000000100240F3
:1029E00000004242800442420C000020007000407F
:1029F00010B5401EB0F1807F01D3012010BD4FF013
:102A0000E02460610F21601700F0F9F90020A06157
:102A100007202061002010BD70B5040004D094F898
:102A20003D00002510B106E0012070BD84F83C5047
:102A3000204600F023F8242084F83D002068C16877
:102A400021F40051C160204600F036F92068016988
:102A500021F4904101612068416921F02A0141611E
:102A60002068C16841F40051C1602564202084F8C9
:102A70003D0084F83E00002070BD000030B585B0F8
:102A8000002400940194029403940068144988423D
:102A900024D11448816941F480418161816901F444
:102AA00080410491816941F00401816180690E4D8A
:102AB00000F0040004904FF4007000900220019098
:102AC0000320039069462846FFF7CCFA2815CDE984
:102AD0000004694628460294FFF7C4FA05B030BDE9
:102AE0000038014000100240000801402DE9F84381
:102AF000044690F83D001F4616460D4620284CD14E
:102B0000C5B1BEB194F83C00012846D0012084F83C
:102B10003C004FF00008C4F84080212084F83D00BC
:102B2000FFF780FBA6848146E684A068B0F5805F4D
:102B300003D004E00120BDE8F883206928B12E46C7
:102B40005FF0000584F83C800EE00026FAE7802163
:102B5000204600F00DF9A0B9AEB116F8010B2168BE
:102B60004860E08C401EE084E08C4B464FF0000251
:102B700000970028EBD14FF04001204600F0F8F814
:102B800030B10320D7E735F8020BC0F30800E6E7C1
:102B9000202084F83D000020CDE70220CBE7FEE7AF
:102BA0003EB5002410480094019402940D498460BD
:102BB000016004730475012505614FF460214460D0
:102BC000C161FFF785F808B1FEF7FEFF0095CDE97A
:102BD000015469460448FEF7F9FF002801D0FEF7CA
:102BE000F3FF3EBD002401401C000020054808B54D
:102BF000816941F004018161806900F00400009066
:102C000008BD0000001002400C4810B50A490160E0
:102C10004FF4E1314160002181600C22C160C0E9C4
:102C200004128161C161FFF7F7FE002803D0BDE8FF
:102C30001040FEF7C9BF10BD003801404C00002015
:102C4000FEE7FEE770477047FFF7F2BA30B593B082
:102C500028216846FDF74CFB14210AA8FDF748FB24
:102C6000002401200F940225049000951020119457
:102C700005901094129407946846FFF729FD08B157
:102C800072B6FEE70F20CDE90A040C940D940021E2
:102C90000AA80E94FFF730FC08B172B6FEE70FA841
:102CA0000F951194FFF7B2FB002801D072B6FEE732
:102CB00013B030BD7047000070B50446006801696C
:102CC000E26821F44051114301612169A068084381
:102CD000616908432168CA6841F20C639A43024360
:102CE000CA6020684169A26921F4407111434161C1
:102CF0001E492068884202D1FFF7A4FC01E0FFF7DB
:102D000091FC00EBC00101EB0012606864218000BF
:102D1000B2FBF0F3B3FBF1F36FF018067343B2FBB1
:102D2000F0F5B2FBF0F605EB8305322303EB051556
:102D3000B5FBF1F5B6FBF1F605F0F00505EB061570
:102D4000B2FBF0F6B2FBF0F0B0FBF1F06FF018025E
:102D5000504306EB800003EB0010B0FBF1F021685C
:102D600000F00F002844886070BD0000003801406A
:102D70002DE9F041984617460E460446069D1DE093
:102D8000681C1BD02DB1FFF74DFAA0EB0800A8423C
:102D900014D92068C16821F4D071C16020684169EC
:102DA00021F001014161202084F83D0084F83E00BB
:102DB000002084F83C000320BDE8F0812068006812
:102DC00036EA000004D00020B842D9D00020F3E752
:102DD0000120F9E7FEE7490050EAC12018BF0420AE
:102DE0004A0D18BF40F0010040F2FF72B2EB515F94
:102DF00008BF40F00200012808BF052070470907FE
:102E0000090E002804DB00F1E02080F80014704770
:102E100000F00F0000F1E02080F8141D7047000062
:102E200038B504468DF800000223012269460248A5
:102E3000FFF75CFE204638BD4C000020FFF700FA8B
:102E4000FFF704FFFFF7D2FEFFF7AAFEFFF7DCFE55
:102E5000134C6FF00B054FF47A761248FFF790F899
:102E600064211048FEF7EEFF0E48FEF72DFF87B2F3
:102E700039460DA0FDF7C0F9384600F079F8214633
:102E800000F08AF8294600F087F900F03FF8024682
:102E90000B460AA0FDF7B0F93046FFF7D1F8DCE7A2
:102EA0000000A0401C0000204144432076616C7566
:102EB000652069732025640D0A000000766F6C742C
:102EC0006167652076616C75652069732025660DE4
:102ED0000A00000010B500290AD00878002807D0A1
:102EE00005487844FDF7B0FF002801D0002010BD50
:102EF0000248784410BD00000A04000002040000EB
:102F00000808A0F500114FEA3101704743004FEA6D
:102F1000D30C4FEA3C0C43401FBF40070CF16051FB
:102F200013F0FE4F70471CF0006F03D100200CF02F
:102F3000004170470CF0004343EA507010B540EA7E
:102F4000CC0000F0AAF800BF000000924FEA000198
:102F5000FFF7D6BF4FF000414FF00000A1F5002170
:102F600070470000014800F0E5B800BF0000C07FD6
:102F7000B0FA80F310FA03F2C3F19D030AD0D90529
:102F800001EB1220530638BF704700F1010008BF63
:102F900020F00100704700004FF47F0C1CEAD012B3
:102FA0001EBF1CEAD11392EA0C0F93EA0C0F00F03B
:102FB000478090EA010F48BF42F480724FF0004C06
:102FC0004CEA00204CEA012102EB0302A0FB0113B2
:102FD000A2F50002002918BF43F001035B0028BFDF
:102FE0004FEA330342EB22425FEA132C4CEBC25010
:102FF0002EBFBCEB436FB2F57C0F70474FEA036CFA
:10300000BCF1004F08BF20F00100B2F57C0F38BFC3
:1030100070470BD582F0FF0212F5803FC8BF7047A2
:1030200000F1C040D8BF00F00040704700F5000C30
:103030005FEA4C0C48BF7047B0F1C04000F073B875
:1030400090EA010F0CEAD11348BF42F48072624546
:1030500038BF634504D280EA010000F000407047A9
:1030600010B500F01AF800BF8900013E00F007B863
:1030700000F009B85FEA410C5FEA1C6C08D080EAF6
:10308000010000F050B85FEA400C5FEA1C6CF6D11A
:103090004FF00040A0F5800070470EF1020E2EF0B8
:1030A000030E5EF8044B244204D44FEA4102B2F10D
:1030B0007F4F11D84FEA4003B3F17F4F0CD80ED1A8
:1030C0004FEAD07CB2F17F4F0CEB4C0C0CF1020CB0
:1030D00008BF4CEBD17C04E04FF0080C01E04FEA54
:1030E000D17C0CEB4C0324FA03F404F00704B4F194
:1030F000040C06D20EEB840CBDE810404CF0010C21
:103100006047DFE80CF0070802024FF00040A0F52E
:10311000800010BD0846420018BFD2F1807288BFFF
:1031200000F0004010BDFF2141EAD050C0057047BB
:10313000FDF73ABA0CF00F03092B08BF082000F086
:1031400051800A2B0BD0082B18BF704708BF1CF00A
:10315000400F0AD04FF000004FF0000170471CF004
:10316000400F18BF4FF0004070471CF0100F08D000
:1031700020F0704300F07F4242EAD3014FEA4370EF
:10318000704700F0604021F07F4242EA000201F007
:103190007F4040EA727070474FF0FF0212EAD0524F
:1031A0001CBF92F0FF038B42C2BFD14200EBC15063
:1031B0007047002A0AD0002B0BD0002900F00040F5
:1031C000A4BF40F0FE4040F40000704700F0004013
:1031D000704743024FF00B0C18BF4CF0806C7FF42B
:1031E000C1AE70471CF4801F11D01CF4E02F03D037
:1031F0006FEACC31490070474FF04050EFF3008246
:1032000022F0704242EA000282F3008870474FF0D9
:1032100000007047000000000000000001020304ED
:103220000607080900000000010203040240000034
:10323000000000A00000000005400000000000C8E1
:10324000000000000C4000000000409C0000000056
:10325000194000000020BCBE000000003440000007
:10326000BFC91B8E00000004B5400000504BCFD0FA
:103270006607E2CF010000006C4100003E8251AAC7
:10328000DFEEA73401000000D9420000DCB5A0E267
:103290003A301F97FFFFFFFFB4450000FD25A0C88F
:1032A000E9A3C14FFFFFFFFFFF3F000000000080C8
:1032B00000000000FF3F0000000000800000000050
:1032C0003A7474003A7474003A7474000833000855
:1032D000000000201C000000280100082433000822
:1032E0001C000020D4070000440100081C0000005E
:1032F00043000000F8FFFFFF0C0000000E0000007C
:103300000F0000002E00000001000000100000006F
:10331000000000000024F400000000000000000095
:0433200000000000A9
:04000005080000ED02
:00000001FF
