:020000040800F2
:10000000C00D002001010008EB1A000821140008AF
:10001000E91A000891010008391D000800000000DD
:10002000000000000000000000000000DD1B0008D0
:1000300093010008000000000D1B0008AD1C000823
:100040001B0100081B0100081B0100081B01000820
:100050001B0100081B010008950100089B01000816
:100060001B0100081B010008A10100081B0100087A
:100070001B0100081B0100081B0100081B010008F0
:100080001B0100081B0100081B0100081B010008E0
:100090001B0100081B0100081B010008A701000844
:1000A0001B0100081B0100081B0100081B010008C0
:1000B0001B0100081B010008000000001B010008D4
:1000C0001B01000800000000000000001B010008E8
:1000D000000000001B0100081B01000800000000D8
:1000E0001B0100081B0100081B010008DFF80CD0F1
:1000F00000F03CF800480047993B0008C00D002084
:100100000648804706480047FEE7FEE7FEE7FEE7B1
:10011000FEE7FEE7FEE7FEE7FEE7FEE7F11C00086C
:10012000ED0000080649074A0868504343F23902C7
:10013000104408604008704701490860704700009B
:10014000740000206D4EC641D2B201E000F8012BD0
:10015000491EFBD270470022F6E710B513460A4647
:1001600004461946FFF7F0FF204610BD064C074D28
:1001700006E0E06840F0010394E807009847103477
:10018000AC42F6D3FFF7B6FF084D0008284D000833
:10019000FEE77047012000F003BC022000F000BC25
:1001A000102000F0FDBB10B5202000F0F9FB40202E
:1001B00000F0F6FBBDE810404FF4807000F0F0BB9B
:1001C0002DE9FF4F83B004460320CDE90040DDF860
:1001D00044B000274FF080093148109A07EB07110F
:1001E00010F811301278934240D100EB410A109878
:1001F0009AF801104078814238D1049804990F3060
:1002000083B204F10F0082B2204601F0CDFA00263D
:1002100000250AEB060800BFBBF1000F13D02149EF
:100220000598088098F8021029FA05F0014203D0D9
:100230002046049901F072F9641C0098A4B2201AB7
:10024000102826D00AE098F8021029FA05F0014299
:1002500001D0059800E0069801F0B2FB6D1CEDB2EC
:10026000082DD9D3761CF6B2202ED1D37F1C01984D
:10027000BFB28742B0D30C484188008807B0491EFE
:10028000BDE8F04F401E8BB282B20021084601F05B
:100290008BBA0498009C401C80B20490E2E70000F6
:1002A000C44B000800000020780000202DE9FF4F1B
:1002B00083B004460120CDE90040DDF844B00027BA
:1002C0004FF0800907EB870000EB47113048109A88
:1002D00010F811301278934240D100EB410A109887
:1002E0009AF801104078814238D104980499173067
:1002F00083B204F1170082B2204601F055FA0026BD
:1003000000250AEB060800BFBBF1000F13D02149FE
:100310000598088098F8021029FA05F0014203D0E8
:100320002046049901F0FAF8641C0098A4B2201A3F
:10033000182826D00AE098F8021029FA05F00142A0
:1003400001D0059800E0069801F03AFB6D1CEDB273
:10035000082DD9D3761CF6B2482ED1D37F1C019834
:10036000BFB28742AED30C484188008807B0491E0F
:10037000BDE8F04F401E8BB282B20021084601F06A
:1003800013BA0498009C401C80B20490E2E700007D
:100390002A4C000800000020780000202DE9FF4FC3
:1003A00083B004460120CDE90040DDF844B00027C9
:1003B0004FF080093148109A07EB871110F811307F
:1003C0001278934240D100EB410A10989AF801103C
:1003D0004078814238D1049804991F3083B204F1E7
:1003E0001F0082B2204601F0DFF9002600250AEB4B
:1003F000060800BFBBF1000F13D021490598088003
:1004000098F8021029FA05F0014203D02046049919
:1004100001F084F8641C0098A4B2201A202826D089
:100420000AE098F8021029FA05F0014201D0059877
:1004300000E0069801F0C4FA6D1CEDB2082DD9D386
:10044000761CF6B2802ED1D37F1C0198BFB28742B2
:10045000B0D30C484188008807B0491EBDE8F04F72
:10046000401E8BB282B20021084601F09DB904986B
:10047000009C401C80B20490E2E70000744C00082D
:10048000000000207800002070B5164601F084F9C5
:1004900006484FF400640460044D00152D1F2860C9
:1004A000304601F08DFA2C6070BD0000140C014044
:1004B00070B5044600F068FB0546601C02D0044895
:1004C0000078044400F060FB401BA042FAD370BDEA
:1004D000640000202DE9FE43FB4AFC4E012822D097
:1004E000012410254FF6FF774FF48278102833D07F
:1004F000202879D0402878D09115884276D11046AE
:1005000000F038FB002839D1F06B00286FD00128AB
:100510006ED002286DD003286CD004282ED1BDE8FF
:10052000FE4302F097B90121104600F023FB00289A
:1005300024D1F06B012807D0022809D003281DD14F
:10054000BDE8FE4302F0B6BABDE8FE4302F004BEC9
:10055000BDE8FE4302F0BEBC1021104600F00AFBCD
:1005600000280BD1F06B58B1012851D0022853D08C
:10057000032855D0042801D1306A3061BDE8FE83DC
:10058000F463D3A0CDE9000520213B46002202946C
:10059000084601F025FBD0A0CDE900053B461A46F0
:1005A00066210294202001F01BFBD0A0CDE90005BC
:1005B0003B461A4686210294202001F011FBD2A06E
:1005C000CDE900053B461A46A6210294202001F001
:1005D00007FBD4A0CDE900053B461A46C62102948C
:1005E000202001F0FDFA06E01EE08AE055E1F7E088
:1005F00047E14AE14DE1D2A0CDE900053B461A466C
:10060000E6210294202001F0EBFA03F0FDFCCAE0A1
:10061000BDE8FE4303F080BDBDE8FE4303F05ABDD4
:10062000BDE8FE4302F026BC2021104600F0A2FAED
:100630000028A3D1F06B60B1012856D0022858D011
:1006400003285AD0042899D1F068BDE8FE4301F090
:10065000AFBC0320F063C1A0CDE9000520213B46DB
:1006600000220294084601F0BBFABEA0CDE90005C5
:100670003B460022202102945A2001F0B1FA96A0B4
:10068000CDE900053B461A4666210294202001F080
:10069000A7FA96A0CDE900053B461A4686210294AA
:1006A000202001F09DFA98A0CDE900053B461A46AE
:1006B000A6210294202001F093FA9AA0CDE900052A
:1006C0003B461A46C6210294202001F089FA9CA0DC
:1006D000CDE900053B461A46E6210294202001F0B0
:1006E0007FFABDE8FE4302F073BBBDE8FE4303F0B2
:1006F0002FBABDE8FE4303F007BABDE8FE4302F09F
:100700003FBB4021104600F035FA002891D1F06B34
:1007100048B101285CD002285ED0032889D1BDE809
:10072000FE4302F03FBA0220F06369A0CDE9000564
:1007300020213B4600220294084601F051FA66A0AF
:10074000CDE900053B461A4666210294202001F0BF
:1007500047FA66A0CDE900053B461A468621029479
:10076000202001F03DFA68A0CDE900053B461A467D
:10077000A6210294202001F033FA6AA0CDE90005F9
:100780003B461A46C6210294202001F029FA6CA0AB
:10079000CDE900053B461A46E6210294202001F0EF
:1007A0001FFA03F08FFB72A0CDE9000546213B46FE
:1007B00000220294084601F013FA70A0CDE900056A
:1007C0003B46002241460294462001F009FAD5E654
:1007D000BDE8FE4302F0B6BDBDE8FE4302F08EBDAB
:1007E0000420F0633CA0CDE900053B461A46662193
:1007F0000294202001F0F4F93CA0CDE900053B462D
:100800001A4686210294202001F0EAF93EA0CDE9A3
:1008100000053B461A46A6210294202001F0E0F98B
:1008200040A0CDE900053B461A46C621029420208F
:1008300001F0D6F942A0CDE900053B461A46E62173
:100840000294202001F0CCF94FA0CDE90005202131
:100850003B4600220294084601F0C2F94DA0CDE9C2
:1008600000053B46002220210294962001F0B8F9B1
:10087000306A0146801C48433061BDE8FE4302F007
:1008800027B8BDE8FE4303F0F7BABDE8FE4303F026
:10089000CDBABDE8FE4302F087BA042897D10421FF
:1008A000104600F067F9002891D1F06B00288ED037
:1008B000012805D0022803D0032801D0042886D1BE
:1008C000BDE8FE4303F0F6B900100140040000202B
:1008D000BADAB0D7C6E5000073656C65637420773B
:1008E000686963682067616D6500000070726573F8
:1008F000732020555020746F20706C6179206761DF
:100900006D65203100000000707265737320444FE4
:10091000574E20746F20706C61792067616D65207F
:10092000320000007072657373204C454654207489
:100930006F20706C61792067616D65203300000065
:10094000707265737320524947485420746F207049
:100950006C61792067616D6520340000474F42412A
:100960004E470000424C41434B20474F00000000DF
:10097000426C61636B20676F00000000BADAC6E565
:10098000203A20B0D7C6E500424C41434B204A41B3
:10099000434B0000504C4159455220474F00000046
:1009A000044910B50A68024202D00860FFF792FDC0
:1009B00010BD0000140401402DE9F84FDFF894A1A8
:1009C00000220AF1040B14464FF0010C4FF00F09FE
:1009D0000BF1040E0B680CFA04F52B40AB4271D1FD
:1009E0005D4E4F68A7EB0608B7422BD00DDC032FF6
:1009F00034D005DC37B3012F19D0022F2FD11BE0E3
:100A0000112F16D0122F2AD119E0B8F5881F19D04E
:100A100006DCB8F5803F15D0B8F5801F1FD111E076
:100A2000B8F5001F0ED0B8F5041F18D10AE0CA6847
:100A300015E0CA68121D12E0CA6808320FE0CA68E1
:100A40000C320CE08A682AB1012A4FF0080203D068
:100A5000456104E0042202E0056100E00022FF2B72
:100A600001D8074601E000F104074FEA840601D9E6
:100A7000A6F120063D6809FA06F825EA080502FAFB
:100A800006F645EA06053D604D68ED005CD5334D40
:100A9000AE6946F00106AE61AD6924F0030605F0CB
:100AA000010500952E4D7719BD68A607360F09FA86
:100AB00006F825EA0805DFF8AC80404503D14FF081
:100AC000000810E040E0DFF8A080404502D14FF080
:100AD000010808E0DFF89480404502D14FF0020899
:100AE00001E04FF0030808FA06F848EA0508C7F8DD
:100AF00008804D68ED0305D5DAF800501D43CAF8AB
:100B0000005004E0DAF800609E43CAF800604D68C7
:100B1000DBF80060AD035D4601D51E4300E09E4357
:100B20002E604D68DEF80060ED02754601D51E436B
:100B300000E09E432E604D68AD020D4D2E6801D53C
:100B40001E4300E09E432E60641C102CFFF442AF55
:100B5000BDE8F88F000401400000111000100240B1
:100B60000000014000080140000C0140001001405D
:100B70000C0401408068084000D0012070470AB191
:100B8000016170470904FBE7014880687047000075
:100B90006400002002488168027811448160704737
:100BA00064000020074810B5016841F010010160A1
:100BB000032000F073F8002000F006F800F024F89D
:100BC000002010BD0020024070B50D4D04464FF4CA
:100BD0007A712878B1FBF0F00A490968B1FBF0F0AE
:100BE00000F00AFC48B9102C07D200222146501E02
:100BF00000F034F800206C6070BD012070BD000072
:100C000064000020700000200C4808B5816941F0A4
:100C100001018161816901F001010091C16941F027
:100C20008051C161C06900F0805000900448416863
:100C300021F0E06141F08061416008BD0010024098
:100C40000000014000F01F02012191404009800096
:100C500000F1E020C0F8001170470000F0B40E4B26
:100C60001B680C46C3F30223C3F10705042D00D90A
:100C70000425191D072901D2002300E0DB1E0126EF
:100C800006FA05F1491E214099409E40761E164005
:100C90003143F0BC00F02ABF0CED00E0064900F043
:100CA000070208684FF6FF03184040EA0220034A93
:100CB00010430860704700000CED00E00000FA05EA
:100CC0002DE9F047DFF8548105460E46D8F80000BC
:100CD00000F00700B0420CD2D8F8001021F0070154
:100CE0003143C8F80010D8F8000000F00700B04207
:100CF0006FD128684A4C810712D5400703D5606838
:100D000040F4E06060602878000703D5606840F434
:100D1000605060606068A96820F0F000084360607F
:100D20002878C00744D06868012816D021680228B6
:100D300016D0890700294CDA616821F003010143CC
:100D40006160FFF721FF6968074641F28830012999
:100D50000ED00229814618D026E021688903E9E7F0
:100D60008901E7E7FFF710FFC11B494501D918E0EA
:100D700081466068C0F381000128F3D118E000BF0C
:100D8000FFF702FFC11B49450BD86068C0F3810023
:100D90000228F5D10CE000BFFFF7F6FEC11B494564
:100DA00002D90320BDE8F087606810F00C0FF3D182
:100DB000D8F80010404601F00701B1420BD9016894
:100DC00021F0070131430160006800F00700B042E4
:100DD00001D00120E6E72878400705D56068E9687A
:100DE00020F4E060084360602878000706D560685A
:100DF000296920F4605040EAC100606000F016F8F4
:100E00006168084AC1F30311515CC8400649086093
:100E10000020FFF7D9FE0020C4E7000000200240B8
:100E200000100240F64C00087000002012A185B0AE
:100E30000FC98DE80F0014A0144A0068049051688F
:100E4000134801F00C03042B10D0082B0ED1C1F372
:100E50008343C9031DF803000AD5516804AAC1F3EE
:100E60004041515C0A4A5043B0FBF1F005B0704775
:100E700008494843FAE70000020304050607080989
:100E80000A0B0C0D0E0F10100102000000100240A2
:100E900000127A0000093D002DE9F84F0446007861
:100EA000B94DC00748D06868C0F38100012807D059
:100EB0006868C0F38100022809D16868C00306D5BC
:100EC0002868800338D5606800286FD034E06068F7
:100ED000B0F5803F0BD010B1B0F5A02F11D028682D
:100EE00020F480302860286820F4802002E0286800
:100EF00040F480302860606888B1FFF745FE064600
:100F000009E0286840F480202860F0E7FFF73CFE05
:100F1000801B642875D828688003F7D50CE0FFF79C
:100F200033FE064605E000BFFFF72EFE801B642857
:100F3000F0D828688003F7D42078944E80074FF0CB
:100F400001094FF000083BD5686810F00C0F07D07E
:100F50006868C0F38100022809D16868C00306D41C
:100F60002868800714D5206901281FD110E0206966
:100F7000B0B1C6F80090FFF707FE074605E000BFD6
:100F8000FFF702FEC01B0228C4D828688007F7D5E7
:100F90002868616920F0F80040EAC10028600FE08D
:100FA000C6F80080FFF7F0FD074606E0E9E000BF65
:100FB000FFF7EAFDC01B022823D828688007F7D472
:100FC000207800072CD57248A169D9B1C0F80090EB
:100FD000FFF7DAFD074604E0FFF7D6FDC01B022845
:100FE0000FD8686A8007F7D56A484FF4FA5100684D
:100FF000B0FBF1F0009000BF0098411E0091FAD2C2
:101000000EE080E0C0F80080FFF7BEFD074604E078
:10101000FFF7BAFDC01B022875D8686A8007F7D4AD
:101020002078400760D5E8690027C00008D4E86947
:1010300040F08050E861E869012700F0805000909E
:1010400055480168C90513D40168834641F480718D
:101050000160FFF799FD824606E000BFFFF794FDAF
:10106000A0EB0A0064284ED8DBF80000C005F5D5D7
:10107000E06801280AD008B1052813D0286A20F0BA
:1010800001002862286A20F0040002E0286A40F08B
:1010900001002862E06841F2883B98B1FFF774FDD7
:1010A00082460BE0286A40F004002862EEE700BFA9
:1010B000FFF76AFDA0EB0A0159455AD8286A800754
:1010C000F6D50CE0FFF760FD824605E0FFF75CFD1A
:1010D000A0EB0A0159454CD8286A8007F6D41FB105
:1010E000E86920F08050E861E06988B36968C1F37D
:1010F0008101022945D00228C6F8608004D0FFF79C
:1011000043FD044638E034E0FFF73EFD074604E0C7
:10111000FFF73AFDC01B02282BD828688001F7D4BE
:10112000206AB0F5803F05D16868A16820F40030DE
:1011300008436860D4E908010843696821F4741120
:1011400008436860C6F86090FFF71EFD044606E09D
:1011500015E000BFFFF718FD001B022809D828681A
:101160008001F7D50BE000BFFFF70EFD001B022842
:1011700002D90320BDE8F88F28688001F4D400204C
:10118000F8E70120F6E700000010024000004242AC
:1011900080044242700000200070004070B50400DE
:1011A00005D00025A56294F8510010B104E001209B
:1011B00070BD204600F034F8022084F85100206809
:1011C000016821F040010160D4E901010843D4E93C
:1011D00003121143084361690843218B01F4007134
:1011E0000843E1690843216A0843A16A084321686A
:1011F0000860A069042101EA1040616A084321687F
:1012000048602168E06A08612068C16921F40061D2
:10121000C1616565012084F85100002070BD0000A7
:1012200000B585B000210091019102910391006801
:101230001349884221D11348816941F48051816169
:10124000816901F480510491816941F00801816153
:101250008069694600F00800049028200090022070
:101260000190032003900848FFF7A6FB0748416858
:1012700041F0E06141F00101416005B000BD0000B6
:101280000030014000100240000C0140000001400D
:101290002DE9F84F044690F850000026994617466D
:1012A0000D4601280DD04FF0010B84F850B0FFF728
:1012B0006BFC804694F85100B246012804D0022607
:1012C00094E00220BDE8F88F002D7BD0002F79D06C
:1012D000032084F85100C4F854A02563A786E7864C
:1012E000C4F838A0A4F83CA0A4F83EA0C4F844A0D8
:1012F000C4F840A0A068B0F5004F04D12068016890
:1013000041F48041016020680168490603D4016806
:1013100041F040010160E068B0F5006F606804D002
:1013200030B3E08E012823D03EE010B1E08E0128DA
:101330001AD135F8021B206805E02068816889070A
:1013400006D535F8021BC160E08E401EE0860BE03A
:10135000B9F1000F34D0B9F1FF3F05D0FFF714FC0D
:10136000A0EB080149452BD2E08E0028E5D11EE014
:10137000216815F8010B087306E020688168890769
:1013800006D515F8011B0173E08E401EE0860BE0C8
:10139000B9F1000F14D0B9F1FF3F05D0FFF7F4FB0E
:1013A000A0EB080149450BD2E08E0028E5D14B4661
:1013B000012202212046CDF8008000F0B8FB10B1D8
:1013C000032613E011E042464946204600F09FFB09
:1013D00018B101262020606508E0A06818B92068CF
:1013E000C16880680090606D00B1012684F851B03A
:1013F00084F850A0304665E710B5401EB0F1807FFC
:1014000001D3012010BD4FF0E02460610F2160176F
:1014100000F06CFB0020A06107202061002010BDBF
:10142000FEE700002DE9F047134C8146002160885B
:10143000401E83B22088401E82B2084600F0B4F9F4
:101440000E484FF400670760A0F104080115C8F8C2
:101450000010002609E0002503E0484600F0B0FA3D
:101460006D1C2088A842F8D8761C6088B042F2D85B
:10147000C8F80070BDE8F08778000020140C014027
:101480002DE9FE4F161ACDE900104FF000085D1A45
:1014900047464FF0FF30002E02DD4FF0010102E021
:1014A00003D14FF000018B4602E08346C6F10006EF
:1014B000002D02DD4FF0010002E003D14FF00000EB
:1014C000824602E08246C5F10005AE4201DD3446A7
:1014D00000E02C46601C4FF00009029018E00098D4
:1014E00081B2019880B200F019F8B0442F44A045B1
:1014F00004DD0198A8EB040858440190A74203DDDD
:1015000000983F1B5044009009F101001FFA80F938
:1015100002998945E3DDBDE8FE8F000010B500F0BB
:101520003BF903480088BDE8104000F049BA0000CC
:101530000000002010B500F01DF9CF2000F0FAF9EE
:10154000002000F0E7F9D92000F0E4F9302000F0A5
:10155000E1F9ED2000F0EEF9642000F0DBF9032062
:1015600000F0D8F9122000F0D5F9812000F0D2F96E
:10157000E82000F0DFF9852000F0CCF9102000F021
:10158000C9F97A2000F0C6F9CB2000F0D3F9392050
:1015900000F0C0F92C2000F0BDF9002000F0BAF9ED
:1015A000342000F0B7F9022000F0B4F9F72000F081
:1015B000C1F9202000F0AEF9EA2000F0BBF90020CC
:1015C00000F0A8F9002000F0A5F9C02000F0B2F961
:1015D0001B2000F09FF9C12000F0ACF9122000F0B0
:1015E00099F9C52000F0A6F9262000F093F92620ED
:1015F00000F090F9C72000F09DF9B02000F08AF9C2
:10160000362000F097F9082000F084F93A2000F025
:1016100091F9552000F07EF9B12000F08BF90020FF
:1016200000F078F91A2000F075F9B62000F082F980
:101630000A2000F06FF9A22000F06CF9F22000F00F
:1016400079F9002000F066F9262000F073F90120F6
:1016500000F060F9E02000F06DF91F2000F05AF969
:10166000242000F057F9242000F054F90D2000F058
:1016700051F9122000F04EF9092000F04BF95220E8
:1016800000F048F9B72000F045F93F2000F042F99A
:101690000C2000F03FF9152000F03CF9062000F086
:1016A00039F90E2000F036F9082000F033F9002057
:1016B00000F030F9E12000F03DF9002000F02AF9B7
:1016C0001B2000F027F91B2000F024F9022000F075
:1016D00021F90E2000F01EF9062000F01BF92E2043
:1016E00000F018F9482000F015F93F2000F012F939
:1016F000032000F00FF90A2000F00CF9092000F097
:1017000009F9312000F006F9372000F003F91F2015
:1017100000F000F92B2000F00DF9002000F0FAF89D
:10172000002000F0F7F8012000F0F4F83F2000F06E
:10173000F1F82A2000F0FEF8002000F0EBF800207D
:1017400000F0E8F8002000F0E5F8EF2000F0E2F803
:10175000112000F0EFF87820FEF7AAFE292000F013
:10176000E9F8002000F006F9BDE810404FF6FF70E0
:10177000FFF758BE10B507484FF48054046064204A
:10178000FEF796FE0348001F0460BDE810403220BB
:10179000FEF78EBE140C0140891F801F8BB282B2EF
:1017A00089B280B2AFF300802DE9F041DFF85080BC
:1017B00007461C4615460E4698F80A0000F0BAF88F
:1017C000380A00F0A7F8F8B200F0A4F8280A00F0F0
:1017D000A1F8E8B200F09EF898F80C0000F0AAF822
:1017E000300A00F097F8F0B200F094F8200A00F008
:1017F00091F8E0B200F08EF8BDE8F04100F0AAB830
:10180000780000202DE9FF4F83B08146DDE9100507
:101810008846203800F0FF0A08EB0500DFF8E4B046
:10182000401E83B209EB5500BBF80010401E82B287
:101830000191129C41464846FFF7B6FF34B300249D
:101840004CE00C2D05D0304800EB0A100026075D57
:1018500017E02E480AEB4A0100EB8100F6E7F80793
:1018600001D0059800E00698ABF8000008EB0400F2
:1018700081B209EB060080B2FFF750FE7F08761CAC
:10188000F6B2B6EB550FEAD3641CE4B2AC42D8D33F
:1018900026E00C2D08D01C4800EB0A100026075D3E
:1018A00008EB0400009014E018480AEB4A0100EB32
:1018B0008100F3E70598ABF80000F80706D0009820
:1018C00081B209EB060080B2FFF728FE7F08761C84
:1018D000F6B2B6EB550FEDD3641CE4B2AC42D8D3EC
:1018E0000198ABF800000A484188008807B0491EFB
:1018F000BDE8F04F401E8BB282B200210846FFF7D0
:1019000053BF000000000020D445000860410008DB
:101910007800002070B506494FF400640C60044D57
:1019200009152D1F296000F04DF92C6070BD0000D5
:10193000140C014010B506494FF400640C600A1500
:101940000A6000F03FF90248001F046010BD00006B
:10195000140C01400148007AFFF7ECBF780000202A
:1019600010B50C46FFF7E6FFE0B2BDE81040FFF708
:10197000D1BF000011492A224FF4A0734A812B22C3
:101980008A812C220A81F02258B101280DD0022828
:101990000FD0032811D10B804A80A8213620FFF7F1
:1019A000DFBF0A804B800821F8E70B804A8068215E
:1019B000F4E70A804B80C821F0E7704778000020E8
:1019C00070B5044607484FF400650560054E0015E4
:1019D000361F3060200A00F0F5F8E0B200F0F2F8AF
:1019E000356070BD140C014070B586B000242D48E0
:1019F0000094019402940394816941F0080181618B
:101A0000816901F008010491816941F0200181613F
:101A1000816901F020010491816941F01001816127
:101A20008069214E00F010004FF47C4504900022A4
:101A300029463046FFF7A3F840F2771000901B4884
:101A4000CDE9010469461A48FEF7B6FF012000956A
:101A5000CDE901040220039069463046FEF7ACFF51
:101A6000002211460620FFF7F9F80620FFF7EAF8F2
:101A7000002211460720FFF7F1F80720FFF7E2F8F0
:101A8000002211460A20FFF7E9F80A20FFF7DAF8EA
:101A9000002211461720FFF7E1F81720FFF7D2F8D0
:101AA00006B070BD00100240000C01400000211083
:101AB000001001400B480A494FF4007201604FF4D6
:101AC0008271416000218160C1600161C0E905123D
:101AD000C1610162416281620A21C162FFF75EBB9E
:101AE0000030014088000020FEE770470907090E1A
:101AF000002806DA00F00F0000F1E02080F8141D45
:101B0000704700F1E02080F800147047704738B546
:101B10000B46009204460022802100F008F80028BD
:101B200004D0606D40F020006065032038BD2DE9D1
:101B3000F0411D4617460E460446DDF8188035E094
:101B4000681C33D02DB1FFF71FF8A0EB0800A842A6
:101B50002CD32068416821F0E00141606068B0F555
:101B6000827F0BD1A068B0F5004F02D0B0F5806F36
:101B700004D12068016821F040010160A06AB0F53D
:101B8000005F0AD1206801684DF6FF7211400160C4
:101B90002068016841F400510160012084F851007F
:101BA000002084F850000320BDE8F08120688068A0
:101BB00036EA000004D00020B842C1D10020F3E78B
:101BC0000120F9E701B54FF47A7301226946024812
:101BD000FFF75EFB08BD0000880000207047000092
:101BE0002DE9FF4F83B0884610A9044691E86004B0
:101BF000814628782C4F9B46002852D03888A0EB8D
:101C00005601A1424DDB79888A1B424549DB297880
:101C1000802915D9801BA04243DB424541DB202EA1
:101C200033D0CDE9005A059A182E5B46414620462E
:101C300034D0FEF7C5FAA01984B215F8020FDBE71D
:101C40000D290DD0102E12D910228DE806045B4606
:101C500041462046059AFFF7D5FD0834A4B211E0AD
:101C600008EB06001FFA80F84C466D1C0AE08DE870
:101C700042045B4641462046059AFFF7C3FD04EB4C
:101C8000560084B215F8010FB6E7CDE9005A5B465D
:101C900041462046059AFEF781FBCCE7FEF706FB9E
:101CA000C9E707B0BDE8F08F78000020FEF772BFEB
:101CB00030B58FB028216846FEF74DFA14210AA8E6
:101CC000FEF749FA01252804CDE9005000240794C5
:101CD0006846FFF7E1F80F200A90CDE90B540D9408
:101CE00000210AA80E94FEF7EBFF0FB030BD0000F4
:101CF0000D48016841F00101016041680B4A114043
:101D0000416001680A4A11400160016821F48021A4
:101D10000160416821F4FE0141604FF41F018160C0
:101D20000449C00308607047001002400000FFF83B
:101D3000FFFFF6FE08ED00E0FEE702E008C8121F14
:101D400008C1002AFAD170477047002001E001C1A4
:101D5000121F002AFBD170472DE9F05F15461C4683
:101D6000DDF828B00E46074601EB040800EB050A33
:101D70001FFA88F11FFA8AF05A46FEF785FBA7EB97
:101D800005091FFA88F11FFA89F05A46FEF77CFB15
:101D9000A6EB04081FFA88F11FFA8AF05A46FEF7EC
:101DA00073FB1FFA88F11FFA89F05A46FEF76CFBA5
:101DB00006EB050807EB04091FFA88F11FFA89F002
:101DC0005A46FEF761FB3C1B1FFA88F1A0B25A4647
:101DD000FEF75AFB751BA9B21FFA89F05A46FEF7A7
:101DE00053FBA9B2A0B25A46BDE8F05FFEF74CBB68
:101DF0002DE9FE4F604A52F82000012811D00A2830
:101E000000DB0A2052F82110904601290BD00A2944
:101E100000DB0A2144180125DFF860A10B2804D05B
:101E200005E00B20EEE70B21F4E70B2904D0112C81
:101E300003DBCAF808404FE00C24FEF773F93521A4
:101E400090FBF1F24C4E01FB1207D036894605E0BB
:101E5000FEF768F990FBF9F209FB120756F8270024
:101E60000128F5D046F827503A466E217D2000F033
:101E7000DBF958F8270002460A2800DB0A20012A6D
:101E80000AD00444112C27DAFEF74CF9494690FB9E
:101E9000F1F209FB12070BE004F10B001528F1DC4D
:101EA0000446EFE7FEF73EF990FBF9F209FB120753
:101EB00056F827000128F5D046F827503A468221E7
:101EC0007D2000F0B1F958F8270001460A2800DB10
:101ED0000A20012933D00444CAF80840102428A05D
:101EE0008DE831004FF6FF774FF4877856463B4632
:101EF000002241468C20FFF773FE4146B420B268B1
:101F000000F018FBB06840F21D18152829DCF168B4
:101F100088421ADD1CA08DE831003B461A46414636
:101F20004FF01E00FFF75CFE1AA08DE831003B4623
:101F3000002241461E20FFF753FEBDE8FE8F04F14C
:101F40000B001528C8DC0446C6E70AD10EA08DE8B0
:101F500031003B461A4641461E20FFF741FE10A0C5
:101F6000E3E709A08DE831003B461A4641461E20B2
:101F7000FFF736FE0CA0D8E7200700200400002061
:101F800053434F5245000000434F4E54494E554570
:101F90003F000000594F554C4F53452100000000B1
:101FA0004556454E21000000594F5557494E2100D6
:101FB000FEB50446FEF7B6F8352790FBF7F107FBB0
:101FC00011062D4D06E000BFFEF7ACF890FBF7F1CF
:101FD00007FB110655F826000128F5D0012745F822
:101FE0002670264D32466868A0B1E6217D2000F0BB
:101FF0001BF92148D03850F8260001460A2800DB9A
:102000000A2001290CD00444152C13DD686901282D
:102010000CD00FE0D2217D2000F006F96F60E8E7D8
:1020200004F10B001528EFDC0446EDE7E86908B978
:102030000A3CEF61E86800F02FF82046EC6000F001
:1020400041FBE868152816DD10250DA08DE8A100DC
:102050004FF6FF74234640F21D161A4631461E20E5
:10206000FFF7BEFD09A08DE8A100234600223146FE
:102070001E20FFF7B5FDFEBDF00700200400002084
:10208000434F4E54494E55453F000000594F554C63
:102090004F534521000000003EB5012310244FF4AA
:1020A00087714FF6FF7201283DD002283DD00328EA
:1020B00044D0042844D0052844D0062844D007281A
:1020C00044D0082844D0092844D00A2844D00B28FA
:1020D00044D00C2844D00D2844D00E2844D00F28DA
:1020E00044D0102844D0112844D0122844D01328BA
:1020F00044D0142844D0152844D0162844D017289A
:1021000044D0182844D0192844D01A2844D01B2879
:1021100044D01C2844D01D2844D01E2844D01F2859
:102120000BD122A002E022A000E022A0CDE9000411
:10213000029346201346FFF753FD3EBD1EA0F5E770
:102140001EA0F3E71EA0F1E71EA0EFE71EA0EDE73B
:102150001EA0EBE71EA0E9E71EA0E7E71EA0E5E74B
:102160001EA0E3E71EA0E1E71EA0DFE71EA0DDE75B
:102170001EA0DBE71EA0D9E71EA0D7E71EA0D5E76B
:102180001EA0D3E71EA0D1E71EA0CFE71EA0CDE77B
:102190001EA0CBE71EA0C9E71EA0C7E71EA0C5E78B
:1021A0001EA0C3E71EA0C1E71EA0BFE73331000099
:1021B0003100000032000000330000003400000055
:1021C0003500000036000000370000003800000035
:1021D00039000000313000003131000031320000A0
:1021E0003133000031340000313500003136000059
:1021F0003137000031380000313900003230000042
:10220000323100003232000032330000323400003C
:10221000323500003236000032370000323800001C
:1022200032390000333000002DE9FE4304460D2012
:102230000D4692FBF0F10126904610274FF6FF79EC
:1022400061B198FBF0F101290AD098FBF0F1022965
:1022500008D098FBF0F0032806D00FE028A004E097
:1022600029A002E02AA000E02BA0CDE90007A9B236
:102270000296A0B24B460022FFF7B2FC28483C343D
:1022800050F82800012819D0022819D0032823D09B
:10229000042823D0052823D0062823D0072823D0BC
:1022A000082823D0092823D00A2823D00B2823D09C
:1022B0000C2823D00D280DD11AA002E01AA000E0AE
:1022C0001AA0CDE90007A9B20296A0B24B4600229F
:1022D000FFF786FCBDE8FE8315A0F2E715A0F0E746
:1022E00015A0EEE715A0ECE715A0EAE715A0E8E7D2
:1022F00015A0E6E715A0E4E715A0E2E715A0E0E7E2
:1023000053504144450000004845415254000000EC
:10231000434C5542000000004449414D4F4E44009B
:10232000200700204B0000004100000032000000A8
:1023300033000000340000003500000036000000CB
:102340003700000038000000390000003130000084
:102350004A000000510000003EB5554D55F822409E
:1023600055F823200A2C00DB0A240A2A00DB0A2263
:10237000504B012C03D0012A09D022440DE05D69A5
:10238000012A05F1010502F10B025D6105D104F19D
:102390000B025C6904F101045C61DA604FF0010436
:1023A0004FF010054FF6FF73012A3DD0022A3DD0B1
:1023B000032A45D0042A45D0052A45D0062A45D00F
:1023C000072A45D0082A45D0092A45D00A2A45D0EF
:1023D0000B2A45D00C2A45D00D2A45D00E2A45D0CF
:1023E0000F2A45D0102A45D0112A45D0122A45D0AF
:1023F000132A45D0142A45D0152A45D0162A45D08F
:10240000172A45D0182A45D0192A45D01A2A45D06E
:102410001B2A45D01C2A45D01D2A45D01E2A45D04E
:102420001F2A0CD124A202E024A200E024A2CDE9BC
:10243000002589B280B202940022FFF7D1FB3EBD95
:1024400020A2F4E720A2F2E720A2F0E720A2EEE724
:1024500020A2ECE720A2EAE720A2E8E720A2E6E734
:1024600020A2E4E720A2E2E720A2E0E720A2DEE744
:1024700020A2DCE720A2DAE720A2D8E720A2D6E754
:1024800020A2D4E720A2D2E720A2D0E720A2CEE764
:1024900020A2CCE720A2CAE720A2C8E720A2C6E774
:1024A00020A2C4E720A2C2E720A2C0E720A2BEE784
:1024B000200700200400002033310000310000001C
:1024C000320000003300000034000000350000003E
:1024D000360000003700000038000000390000001E
:1024E0003130000031310000313200003133000062
:1024F0003134000031350000313600003137000042
:102500003138000031390000323000003231000033
:102510003232000032330000323400003235000025
:102520003236000032370000323800003239000005
:10253000333000003EB5012410254FF6FF73012A09
:102540003DD0022A3DD0032A45D0042A45D0052A91
:1025500045D0062A45D0072A45D0082A45D0092A61
:1025600045D00A2A45D00B2A45D00C2A45D00D2A41
:1025700045D00E2A45D00F2A45D0102A45D0112A21
:1025800045D0122A45D0132A45D0142A45D0152A01
:1025900045D0162A45D0172A45D0182A45D0192AE1
:1025A00045D01A2A45D01B2A45D01C2A45D01D2AC1
:1025B00045D01E2A45D01F2A0CD123A202E023A217
:1025C00000E023A2CDE9002589B280B20294002266
:1025D000FFF706FB3EBD1FA2F4E71FA2F2E71FA212
:1025E000F0E71FA2EEE71FA2ECE71FA2EAE71FA297
:1025F000E8E71FA2E6E71FA2E4E71FA2E2E71FA2A7
:10260000E0E71FA2DEE71FA2DCE71FA2DAE71FA2B6
:10261000D8E71FA2D6E71FA2D4E71FA2D2E71FA2C6
:10262000D0E71FA2CEE71FA2CCE71FA2CAE71FA2D6
:10263000C8E71FA2C6E71FA2C4E71FA2C2E71FA2E6
:10264000C0E71FA2BEE700003331000031000000E8
:1026500032000000330000003400000035000000AC
:10266000360000003700000038000000390000008C
:1026700031300000313100003132000031330000D0
:1026800031340000313500003136000031370000B0
:1026900031380000313900003230000032310000A2
:1026A0003232000032330000323400003235000094
:1026B0003236000032370000323800003239000074
:1026C000333000003EB5012210244FF487714FF6DD
:1026D000FF7301283DD002283DD0032844D00428B0
:1026E00044D0052844D0062844D0072844D00828E0
:1026F00044D0092844D00A2844D00B2844D00C28C0
:1027000044D00D2844D00E2844D00F2844D010289F
:1027100044D0112844D0122844D0132844D014287F
:1027200044D0152844D0162844D0172844D018285F
:1027300044D0192844D01A2844D01B2844D01C283F
:1027400044D01D2844D01E2844D01F280BD122A0DD
:1027500002E022A000E022A0CDE90004029246207F
:102760000022FFF73DFA3EBD1EA0F5E71EA0F3E7ED
:102770001EA0F1E71EA0EFE71EA0EDE71EA0EBE70D
:102780001EA0E9E71EA0E7E71EA0E5E71EA0E3E71D
:102790001EA0E1E71EA0DFE71EA0DDE71EA0DBE72D
:1027A0001EA0D9E71EA0D7E71EA0D5E71EA0D3E73D
:1027B0001EA0D1E71EA0CFE71EA0CDE71EA0CBE74D
:1027C0001EA0C9E71EA0C7E71EA0C5E71EA0C3E75D
:1027D0001EA0C1E71EA0BFE733310000310000009A
:1027E000320000003300000034000000350000001B
:1027F00036000000370000003800000039000000FB
:10280000313000003131000031320000313300003E
:10281000313400003135000031360000313700001E
:102820003138000031390000323000003231000010
:102830003232000032330000323400003235000002
:1028400032360000323700003238000032390000E2
:10285000333000002DE9F041FDF764FC4FF03508FE
:1028600090FBF8F108FB1106184C05E0FDF75AFC47
:1028700090FBF8F108FB110654F826000128F5D06A
:10288000012744F82670FDF74DFC90FBF8F108FB9A
:10289000110505E0FDF746FC90FBF8F208FB120578
:1028A00054F825000128F5D044F8257032466E21F1
:1028B0002D20FFF7B9FC2A4682212D20FFF7B4FC1A
:1028C00029463046BDE8F041FFF792BAF0070020F4
:1028D0002DE9FE43564F00210B4607F1D00401EBD2
:1028E0008102002002EBC102461C1518401C47F86B
:1028F000256044F825300D28F6DB491C0429EEDB61
:102900005023D22219461E20FEF7BAFD1E22A02314
:1029100050211046FEF7B4FDA023D22219461E20F6
:10292000FEF7AEFDD222A02350211046FEF7A8FDEF
:102930004FF010083FA1CDE9001801264FF6FF79AE
:102940004B46002202965A212D20FFF749F93B4DB4
:102950002869FDF7F1FBB423D22219461E20FEF7A9
:102960008FFD4FF482771E223B46B4211046FEF7BE
:1029700087FD3B46D22219461E20FEF781FDD2225A
:102980003B46B4211046FEF77BFDFDF7CBFB352718
:1029900002E000BFFDF7C6FB90FBF7F107FB11005B
:1029A000286554F820000128F4D0286D44F82060F0
:1029B000FDF7B8FB90FBF7F107FB1100686554F8D1
:1029C00020000128F4D0686D4F464B4644F8206043
:1029D00044461BA08DE851000022BE212D20FFF7A8
:1029E000FFF8D2212D202A6DFFF71EFCE6212D20B5
:1029F0006A6DFFF719FC14A08DE851004FF4877839
:102A00003B46002241461E20FFF7EAF8D5E9142391
:102A100041464620FFF7A0FC0DA08DE851003B4643
:102A2000002240F21D111E20FFF7DAF8BDE8FE83F8
:102A3000200700204445414C45522100040000205D
:102A4000504C41594552210053434F52450000001C
:102A5000434F4E54494E55453F00000038B5144C85
:102A600000200090D4E9090106234FF6FF7200F020
:102A70008DFC208D81B2A08C801D80B2FEF74EFDB2
:102A8000208D81B2A08C801F80B2FEF747FD208D83
:102A9000801D81B2A08C80B2FEF740FD208D801F8A
:102AA00081B2A08CBDE8384080B2FEF737BD00008F
:102AB00004000020FEB5304F01241025786B4FF63E
:102AC000FF76012804D000F081F8012836D003E019
:102AD00000F07CF8012816D000F078F800282CD1FE
:102AE00026A0CDE9000533460022F02102944620BD
:102AF000FFF776F821A0CDE900053346F0211A460C
:102B00000294462017E00020786320A0CDE900055C
:102B100033461A46202102945A20FFF761F81EA07E
:102B2000CDE9000533461A46202102945A20FFF7CA
:102B300057F819A018E0FFF753F8FEBD7C6313A007
:102B4000CDE9000533461A46202102945A20FFF7AA
:102B500047F811A0CDE9000533461A46202102941A
:102B60005A20FFF73DF809A0CDE9000500222021F9
:102B7000334602945A20DEE704000020494C4C45BD
:102B800047414C205354455021000000424C4143E2
:102B90004B20474F00000000574849544520474FFD
:102BA0000000000008B5FFF759FF07480623026838
:102BB000816A11440022816200924FF47842406A97
:102BC00000F0E4FB08BD0000040000202DE9FE43F6
:102BD000634C4FF000094F46606AA16AA0F12003E0
:102BE000DD1703EB15731B115E4D03EB8303A1F19E
:102BF000200205EB0316D31702EB1372121156F8DD
:102C00002220002A6BD1626B4FF001094FF00008BF
:102C10004E46012A77D005230022CDF8008000F02F
:102C2000B5FBD4E909012038C31700EB137000117C
:102C30002039CB17022200EB800001EB137105EB6A
:102C40000010091140F821206663002202EB820087
:102C5000002305EB001C00BF5CF82300F0B30CEB75
:102C60008301D1F8048040450BD1D1F8088040455C
:102C700007D1D1F80C80404503D1D1F810804045F0
:102C800036D0D1F8508040450BD1D1F8A0804045D6
:102C900007D1D1F8F080404503D1D1F840814045BB
:102CA00026D0D1F8548040450BD1D1F8A8804045BA
:102CB00007D1D1F8FC80404503D1D1F8508140457F
:102CC00016D0042A15DB51F84C8C404511D151F82F
:102CD000988C40450DD151F8E48C01E009E03AE0D0
:102CE000404506D1A1F58051D1F8D01E884200D1CF
:102CF00001275B1C0B2BAFDB521C0B2AA6DB012F21
:102D00001BD028E0FFE705230022009600F03EFBE1
:102D1000D4E909012038C21700EB127000112039E4
:102D2000CA1700EB800001EB127105EB00100911CE
:102D300040F82160C4F8348087E7616B10204FF6BB
:102D4000FF7359B108A1CDE9001000220296F021CD
:102D50004620FEF745FF4846BDE8FE8305A1F2E7A1
:102D600004000020E00000205748495445205749FE
:102D70004E210000424C41434B2057494E21000058
:102D800008B5FFF76BFE074906230A68486A801AF0
:102D90000022486200924FF47842896A00F0F6FA05
:102DA00008BD00000400002008B5FFF757FE0749E2
:102DB00006230A68486A10440022486200924FF4D1
:102DC0007842896A00F0E2FA08BD000004000020A1
:102DD000F8B5264D7020264B6862A02000210E46D3
:102DE000A86201EB8102002003EB021242F820608E
:102DF000401C1428FADB491C1429F2DB4F23C122A2
:102E000019461F20FEF73CFBF123C12219461F2063
:102E1000FEF736FB1F22F1234F211046FEF730FB51
:102E2000C122F1234F211046FEF72AFB5024A3B202
:102E3000A1B2C0222020FEF723FB1034FF2CF6DDC8
:102E40002024A2B2A0B2F0235021FEF719FB1034C7
:102E5000D02CF6DB06234FF47842A0217020009698
:102E600000F094FA01206863F8BD0000040000201F
:102E7000E000002008B5FFF7F1FD074806230268CF
:102E8000816A891A0022816200924FF47842406A76
:102E900000F07CFA08BD00000400002008B5002006
:102EA000009004480C234FF6FF72816A406A00F0DC
:102EB0006DFA08BD0400002008B500200090044809
:102EC00006234FF6FF72816A406A00F05FFA08BD80
:102ED000040000202DE9FE4F01219248FDF74AFE33
:102EE00000287DD1904CE06C002879D1A06C0125A0
:102EF000DFF8389204F1580201280FD0D4E9090113
:102F000001F0D6F809EB4016D4E909014B4601F06F
:102F1000DBF856F8200001287ED0EDE0A06AD4F856
:102F200034C001467038C31700EBD3604311606AA8
:102F30004FF0400EA0F14006F71706EBD766771169
:102F400010264FF6FF78BCF1010F0BD009EB431AA6
:102F5000CB465AF827C0BCF1000F69D0BCF1020F74
:102F60007ED00AE0CA4609EB431959F827C0BCF1E4
:102F7000000F12D0BCF1010FF2D06DA0CDE9000618
:102F800043460022F02102954620FEF729FE4346E3
:102F900067A01A46F02102959BE01068B3EB000C85
:102FA0005368A7EB030101D5CCF1000C002900DA2E
:102FB000494261440129E0D1702101EB401193465F
:102FC0000EEB43100A234246009500F0DFF9606BD8
:102FD0000090D4E909010A23002200F0D7F900E0AB
:102FE0007CE000206063A06449F82750DBF80020F3
:102FF000DBF804100AEB421242F8210000F008FA54
:103000004FA0CDE90006434646211A4602950846E0
:10301000FEF7E6FD4DA000E06BE0CDE9000643467B
:1030200046211A4602950846FEF7DAFD47A04CE015
:103030001168B3EB010C5368A7EB030001D5CCF189
:10304000000C002800DA40426044012895D170202D
:1030500000EB41110EEB43104FF000090A2300E092
:103060003EE04246CDF8009000F090F9606B009091
:10307000D4E909010A23002200F088F9C4F8489035
:10308000022265634AF82720274A274858325830D9
:10309000126840680BEB421242F8209000F0B8F939
:1030A00027A0CDE90006434646211A460295084668
:1030B000FEF796FD25A0CDE90006434646211A46B7
:1030C00002950846FEF78CFD1DA0002243464621CE
:1030D0000295CDE900064620FEF782FDBDE8FE8F91
:1030E00000F0E6FF1060D4E9090100F0EDFF506048
:1030F000F4E7606B012810D0D4E9090100F0D8FF93
:1031000003EB4013D4E9090100F0DEFF53F820007F
:103110000228E3D1606B0028E0D1A564D4E909015D
:10312000DEE700000010014004000020C00800207D
:10313000494C4C4547414C20535445502100000018
:10314000426C61636B20676F000000005768697410
:103150006520676F000000002DE9FE4F01215A48ED
:10316000FDF708FD002872D1DFF860C1DCF84400EB
:1031700000286CD1DCF83C00002868D0DCF8340072
:10318000012410250128DCF82400514AA0F138015F
:103190004FEAE17301EB13714FEA2118DCF82810B4
:1031A00002EB4812A1F168034FEAE37703EB1773D0
:1031B0004FF000094FF6FF764FEA2317904604D0F0
:1031C00058F82720002A44D02DE052F8273053BB6E
:1031D000072F03DA08EB8702526822B30523002287
:1031E000E246009400F0D2F848F82740CAF834903C
:1031F000DAF82C003346401CCAF82C0035A0CDE983
:10320000000546211A4602940846FEF7E9FC34A060
:10321000CDE90005334646211A4602940846FEF7DA
:10322000DFFC2FA043E031A0CDE9000533460022AA
:10323000F02102944620FEF7D3FC2CA0CDE9000536
:1032400033461A46F02102944620FEF7C9FCBDE839
:10325000FE8F4FF0020A072F04DA08EB870252684C
:10326000002AE0D0CDF8009005230022E14600F0CE
:103270008DF848F827A0C9F83440D9F83000334613
:10328000401CC9F8300013A0CDE9000546211A46BC
:1032900002940846FEF7A4FC11A0CDE900053346D0
:1032A00046211A4602940846FEF79AFC09A0CDE989
:1032B000000546213346002202940846FEF790FCA2
:1032C000BDE8FE4F00F0E2BA00100140040000200B
:1032D000C0080020426C61636B20676F0000000033
:1032E000576869746520676F00000000494C4C45C1
:1032F00047414C20535445502100000038B540212F
:103300000E48FDF737FC002817D10D4CD4E9090110
:1033100000F0CEFE022810DCE06C00280DD1FFF793
:10332000BDFD216CA06A0C2301440020A162009025
:103330004FF47842606A00F029F838BD001001406F
:103340000400002038B540210E48FDF713FC00288A
:1033500017D10D4CD4E9090100F0B0FE062810DCAD
:10336000606C00280DD1FFF7A7FDA16BA06A0623B2
:1033700001440020A16200904FF47842606A00F09E
:1033800005F838BD00100140040000202DE9F84F79
:1033900090461E46894682460024724203200A99BE
:1033A00000EB4205C9B930E0274608E03B4622461B
:1033B00049465046CDF80080FEF7CEFC7F1CB74250
:1033C000F4DD002D03DA05EB8405AD1D04E0A01B40
:1033D00005EB80050A35761E641CB442E4DDBDE8C9
:1033E000F88F3346224649465046CDF80080FEF716
:1033F000B3FC002D03DA05EB8405AD1D04E0A01B32
:1034000005EB80050A35761E641CB442E9DDE6E76B
:103410002DE9FF5FFE4C00200390A06A7038C117B1
:1034200000EBD1604FEA6019606A4038C11700EBC9
:10343000D1604711606B01281DD001230222F4489E
:103440004026DFF8D083406A00254038C11700EBE2
:10345000D160411106EB411008F1200606EB810E08
:10346000203606EB810B0126B9F1010F06D0B9F128
:10347000020F2AD050E002230122E0E75EF8201C70
:10348000F046994248D1D8F82010914244D1D8F85A
:103490004010914240D0012A0CD0B0210A234FF6AF
:1034A000FF720095FFF772FF206B401E2063C8F883
:1034B0002050BAE1B0210A234FF6FF720096FFF7C1
:1034C00065FFE06A401EE062F1E7DBF82010D846B5
:1034D000994221D158F8201C91421DD158F8401C26
:1034E000914219D0012A0CD090210A234FF6FF7285
:1034F0000095FFF74BFF206B401E206348F8205CCF
:1035000093E190210A234FF6FF720096FFF73EFFEA
:10351000E06A401EE062F1E7BD494FF07008896A39
:1035200070394FEAE17C01EBDC614FEA611C08EB8A
:103530004C11DFF8E082012F08EB4C1C02D0022F67
:1035400027D04DE0DCF80080E246984548D1DAF813
:103550000880904544D1DAF80C80904540D0012A8B
:103560000CD080200A234FF6FF720095FFF70EFF64
:10357000206B401E2063CAF8085056E180200A23C1
:103580004FF6FF720096FFF701FFE06A401EE0620F
:10359000F1E7DCF80C80E246984521D1DAF80480A6
:1035A00090451DD1DAF80080904519D0012A0CD041
:1035B00060200A234FF6FF720095FFF7E7FE206BAD
:1035C000401E2063CAF804502FE160200A234FF602
:1035D000FF720096FFF7DAFEE06A401EE062F1E754
:1035E000B9F1000F06D0B9F1010F2DD0B9F1020FDA
:1035F0004DD05DE0DFF81C8208EB870ADAF8208006
:10360000984555D1DAF84080904551D1DAF860807C
:1036100090454DD0012A0CD0B0210A234FF6FF72FD
:103620000095FFF7B3FE206B401E2063CAF84050A0
:10363000FBE0B0210A234FF6FF720096FFF7A6FECB
:10364000E06A401EE062F1E7DEF82080F14698452E
:103650005ED1D9F8408090455AD1012A0CD0D021B2
:103660000A234FF6FF720095FFF790FE206B401E75
:103670002063C9F84050D8E0D0210A234FF6FF72EA
:103680000096FFF783FEE06A401EE062F1E75BF818
:10369000208CD94698453BD159F8408C904537D17C
:1036A000012A02D0702100951BE07021009626E0CF
:1036B000B9F1030F2CD1DFF85C8108F1600808EB49
:1036C000870959F8208C984522D159F8408C9045AB
:1036D0001ED159F8608C90451AD0012A0DD0902146
:1036E00000950A234FF6FF72FFF750FE206B401E35
:1036F000C4F8300049F8405C97E0902100960A2316
:103700004FF6FF72FFF742FEE06A401EE062F1E70B
:10371000802027B1012F27D0022F46D066E0DCF8A9
:103720000480E146984561D1D9F8088090455DD183
:10373000D9F80C80904559D0012A0BD00A234FF6B6
:10374000FF720095FFF722FE206B401E2063C9F830
:1037500008506AE00A234FF6FF720096FFF716FE44
:10376000E06A401EE062F2E7DCF808006746984233
:103770005BD1F868904258D1012A0BD0A0200A23CF
:103780004FF6FF720095FFF701FE206B401E20638D
:10379000FD604AE0A0200A234FF6FF720096FFF773
:1037A000F5FDE06A401EE062F2E7DCF804006746DF
:1037B00098423AD13868904237D1012A0BD0402044
:1037C0000A234FF6FF720095FFF7E0FD206B401EC5
:1037D00020633D6029E040200A234FF6FF720096E7
:1037E000FFF7D4FDE06A401EE062F2E7032F1CD130
:1037F000DCF808006746984217D17868904214D1E7
:103800003868904211D0012A15D060200A2303E0C5
:1038100004000020C00800204FF6FF720095FFF75B
:10382000B5FD206B401E20637D60216B10200129B7
:103830000CDC10A10EE060200A234FF6FF72009608
:10384000FFF7A4FDE06A401EE062EDE7E16A0129AE
:103850000BDC0BA1CDE900104FF6FF73002202969E
:10386000F0214620FEF7BCF9E664039804B0BDE8F9
:10387000F09F0000424C41434B2057696E7321007A
:1038800057484954452057696E7321002DE9FE4F72
:10389000DFF8549201263546D9F82400D9F83420AF
:1038A0003838C11700EB11700111D9F828006838B9
:1038B000C31700EB13700011012A04D001224B1C26
:1038C000DFF828820CE00222F9E700BF08EB43147E
:1038D00054F82040944205D1012A19D06D1C5B1C7C
:1038E000082BF3DB4B1E0AD408EB431454F820409A
:1038F000944204D1012A0DD06D1C5B1EF4D5012425
:1039000010274FF6FF73012A06D0022A08D015E0CF
:10391000761CE4E7761CF0E7042E0FDB74A002E0CF
:10392000042D0BDB75A0CDE900070022F0210294E5
:103930004620FEF755F9C9F84440D1E0D9F844C013
:10394000CA465FEA0C0B3AD100F1010CC64608EBFF
:10395000411909E059F82C80904508D1012A19D065
:1039600015F101050CF1010CBCF1080FF2DBB0F10F
:10397000010C0AD459F82C80904506D1012A0BD0AD
:1039800015F10105BCF1010CF4D5012A06D0022A7B
:1039900008D015E0761CE5E7761CF3E7042E0FDB74
:1039A00053A002E0042D0BDB54A0CDE90007002258
:1039B000F02102944620FEF713F9CAF844408FE044
:1039C000BBF1000F44D101F1010900F1010C0DE040
:1039D0000EEB491C5CF82AC094450ED1012A11D087
:1039E00015F1010509F101090AF1010CE246B9F1ED
:1039F000070F02DCBAF1070FEADDA1F10109A0F11E
:103A0000010C0FE0761CEDE70EEB491C5CF82AC0B8
:103A100094450ED1012A11D015F10105A9F1010932
:103A2000AAF1010CE246B9F1000F02DBBAF1000F76
:103A3000EADA012A04D0022A05D006E0761CEDE776
:103A4000042E47DA01E0042D48DABBF1000F0BD059
:103A500046E0CDE900070022F02102944620FEF75F
:103A6000BFF8214844643BE0A1F1010900F1010ADB
:103A7000F3460DE00BEB491C5CF82AC094450DD1D0
:103A8000012A0DD015F10105A9F101090AF1010A78
:103A9000B9F1000F02DBBAF1070FEBDDDC460AE0FB
:103AA000761CF1E70CEB411858F82080904508D1BE
:103AB000012A0BD06D1C401E491C072901DC00287F
:103AC000F0DA012A04D0022A06D009E0761CF2E7D7
:103AD000042E05DB06A0BCE7042D01DB07A0B8E738
:103AE0000120BDE8FE8F000004000020C008002077
:103AF000424C41434B2057696E732100574849544B
:103B0000452057696E73210038B520210E48FDF716
:103B100031F8002817D10D4CD4E9090100F0D4FA8E
:103B2000012810DBE06C00280DD1FFF7B7F9216CFC
:103B3000606A0C23401A0021606200914FF47842C1
:103B4000A16AFFF723FC38BD0010014004000020EB
:103B500038B520210E48FDF70DF8002817D10D4C7F
:103B6000D4E9090100F09EFA012810DB606C0028FE
:103B70000DD1FFF7A1F9A16B606A0623401A00215D
:103B8000606200914FF47842A16AFFF7FFFB38BDF5
:103B900000100140040000200EB5FDF703F8FEF709
:103BA00087F8FDF721FFFDF785FFFDF7C3FC102522
:103BB0001EA0CDE9000501244FF6FF763346002212
:103BC000662102942020FEF70BF81DA0CDE9000528
:103BD00033460022862102942020FEF701F81FA020
:103BE000CDE9000533460022A62102942020FDF7EE
:103BF000F7FF21A0CDE9000533460022C62102943B
:103C00002020FDF7EDFF23A0CDE90005334600227B
:103C1000E62102942020FDF7E3FF254C206A401C9A
:103C200020626420FCF744FCF8E7000073656C65D3
:103C300063742077686963682067616D65000000C0
:103C400070726573732020555020746F20706C6102
:103C5000792067616D652031000000007072657326
:103C60007320444F574E20746F20706C6179206729
:103C7000616D6520320000007072657373204C45E1
:103C8000465420746F20706C61792067616D6520E7
:103C90003300000070726573732052494748542006
:103CA000746F20706C61792067616D65203400004D
:103CB000040000202DE9FE434FF6FF784046FDF753
:103CC000B1FB364D00241027EC6335A0CDE9000789
:103CD000012643462246662102962020FDF780FFFA
:103CE00034A0CDE900074346002286210296202019
:103CF000FDF776FF36A0CDE9000743460022A62156
:103D000002962020FDF76CFF38A0CDE9000743465E
:103D10000022C62102962020FDF762FF3AA0CDE9DD
:103D2000000743460022E62102962020FDF758FFB7
:103D30002C653C496C65002001F1D002C5F80440B7
:103D400041F8204042F82040401C3428F8DBAC60A9
:103D5000EC606C61AC617820EC616862A820C5E918
:103D60000A04314B00202C63002103EB401200BFFA
:103D700042F82140491C0829FADB401C0828F3DBE3
:103D80002020C5E910040548C5E90D6758300460D6
:103D90004460AC64EC64BDE8FE83000004000020D5
:103DA00073656C6563742077686963682067616D0B
:103DB0006500000070726573732020555020746F89
:103DC00020706C61792067616D6520310000000012
:103DD000707265737320444F574E20746F20706C5F
:103DE00061792067616D6520320000007072657333
:103DF00073204C45465420746F20706C61792067A5
:103E0000616D652033000000707265737320524944
:103E100047485420746F20706C61792067616D652C
:103E20002034000020070020C008002038B54FF4DF
:103E300080710F48FCF79EFE002817D10D4CD4E985
:103E4000090100F041F9022810DCE06C00280DD1D6
:103E5000FFF724F8216C606A0C230844002160629B
:103E600000914FF47842A16AFFF790FA38BD000044
:103E7000001001400400002038B54FF480710F4855
:103E8000FCF778FE002817D10D4CD4E9090100F0A9
:103E900009F9062810DC606C00280DD1FFF70CF83A
:103EA000A16B606A062308440021606200914FF410
:103EB0007842A16AFFF76AFA38BD0000001001409D
:103EC000040000202DE9F84FDFF834A180214D4C8B
:103ED000CAF824109021CAF828100621CAF82C101C
:103EE000CAF8301000210E46002004EB411200BF3A
:103EF00042F82060401C0428FADB491C0429F3DB4B
:103F00002F22E1235F211046FDF7BAFA5F23B12289
:103F100019462F20FDF7B4FAB122E1235F211046A4
:103F2000FDF7AEFAE123B12219462F20FDF7A8FADA
:103F30006025ABB2A9B2B0223020FDF7A1FA20353E
:103F4000F02DF6DB3025AAB2A8B2E0236021FDF700
:103F500097FA2035C02DF6DB00254FF002084027E8
:103F600007EB45100A23002270210096FFF70EFA96
:103F700044F825806D1C042DF2DBB14635460A233A
:103F80000022902140200096FFF700FA0A23002229
:103F90009021A0200095FFF7F9F9C4F820800126B0
:103FA000C4F82C800A230022B02140200096FFF79D
:103FB000EDF90A230022B021A0200096FFF7E6F9D0
:103FC00026640025C4F84C6007EB45100A23002244
:103FD000D0210096FFF7DAF904EB85006D1C066628
:103FE000042DF1DB0C234FF4784290218020CDF892
:103FF0000090FFF7CBF9CAF83460BDE8F88F0000F5
:1040000004000020C0080020F8B5244E0025244BF1
:10401000F56228463563002103EB401242F8215037
:10402000491C0829FADB401C0828F4DB2F22E12375
:104030005F211046FDF724FA5F23B12219462F2095
:10404000FDF71EFAB122E1235F211046FDF718FAB1
:10405000E123B12219462F20FDF712FA6024A3B202
:10406000A1B2B0223020FDF70BFA1034F02CF6DBB1
:104070003024A2B2A0B2E0236021FDF701FA10348F
:10408000C02CF6DB06234FF47842A8217820009557
:10409000FFF77CF901207063F8BD000004000020E8
:1040A000C00800203838C11700EB117000117047AC
:1040B0007039C81701EBD060401170476839C817D4
:1040C00001EB1070001170474038C11700EBD16050
:1040D0004011704738B510210D48FCF74BFD002802
:1040E00014D10C4CA06A902810DBE06C00280DD194
:1040F000FEF7D4FE216CA06A0C23411A0020A162B5
:1041000000904FF47842606AFFF740F938BD000034
:10411000001001400400002038B510210E48FCF7C3
:1041200029FD002817D10D4CD4E90901FFF7C6FF7E
:10413000012810DB606C00280DD1FEF7BDFEA16BDD
:10414000A06A0623411A0020A16200904FF4784231
:10415000606AFFF71BF938BD001001400400002021
:10416000000000000000000000000000000000004F
:10417000000000000000000000000000000000003F
:10418000000000000000000000000000000000002F
:10419000000000000000000000000000000000001F
:1045E0000000000000000008080808080808000093
:1045F0001818000000486C241200000000000000A1
:10460000000000000000002424247F1212127F12F8
:10461000121200000000081C2A2A0A0C1828282A56
:104620002A1C080800000022251515152A58545484
:10463000542200000000000C1212120A76252911E3
:10464000916E000000060604030000000000000058
:10465000000000000040201010080808080808109A
:10466000102040000002040808101010101010085C
:10467000080402000000000008086B1C1C6B0808FE
:104680000000000000000000080808087F08080873
:104690000800000000000000000000000000000012
:1046A000060604030000000000000000FE000000F9
:1046B00000000000000000000000000000000000FA
:1046C000060600000000804040202010100808046A
:1046D00004020200000000182442424242424242C8
:1046E00024180000000000080E0808080808080840
:1046F000083E00000000003C424242202010080416
:10470000427E00000000003C42422018204040420F
:10471000221C0000000000203028242422227E20B9
:10472000207800000000007E0202021A264040426B
:10473000221C0000000000382402021A26424242D5
:10474000241800000000007E22221010080808082B
:10475000080800000000003C424242241824424263
:10476000423C00000000001824424242645840408D
:10477000241C0000000000000000181800000000C9
:1047800018180000000000000000000800000000F1
:10479000000808040000004020100804020408106B
:1047A000204000000000000000007F0000007F00AB
:1047B0000000000000000002040810204020100843
:1047C000040200000000003C42424640201010005D
:1047D000181800000000001C225A555555552D424E
:1047E000221C00000000000808181414243C224277
:1047F00042E700000000001F2222221E2242424205
:10480000221F00000000007C424201010101014220
:10481000221C00000000001F22424242424242424B
:10482000221F00000000003F4212121E121202421C
:10483000423F00000000003F4212121E121202020C
:10484000020700000000003C222201010171212228
:10485000221C0000000000E7424242427E424242E7
:1048600042E700000000003E0808080808080808A1
:10487000083E00000000007C1010101010101010F6
:104880001010110F0000007722120A0E0A121222D5
:104890002277000000000007020202020202020268
:1048A000427F000000000077363636362A2A2A2A50
:1048B0002A6B0000000000E346464A4A5252526208
:1048C000624700000000001C22414141414141413A
:1048D000221C00000000003F424242423E0202020F
:1048E000020700000000001C2241414141414D539C
:1048F000321C60000000003F4242423E121222225F
:1049000042C700000000007C4242020418204042DE
:10491000423E00000000007F490808080808080817
:10492000081C0000000000E742424242424242426C
:10493000423C0000000000E74242222424141418E4
:10494000080800000000006B4949494955553622C6
:1049500022220000000000E7422424181818242412
:1049600042E700000000007722221414080808081B
:10497000081C00000000007E2120101008040442E2
:10498000423F0000007808080808080808080808DE
:10499000080878000000020204040808081010202B
:1049A00020204040001E1010101010101010101089
:1049B00010101E000038440000000000000000003D
:1049C00000000000000000000000000000000000E7
:1049D000000000FF000608000000000000000000CA
:1049E00000000000000000000000003C427844424B
:1049F00042FC0000000000030202021A264242426A
:104A0000261A0000000000000000003844020202E4
:104A10004438000000000060404040784442424278
:104A200064D80000000000000000003C427E02024A
:104A3000423C0000000000F08808087E08080808D2
:104A4000083E0000000000000000007C22221C0242
:104A50003C42423C000000030202023A464242420B
:104A600042E700000000000C0C00000E08080808D7
:104A7000083E0000000000303000003820202020D8
:104A80002020221E0000000302020272120A1612E7
:104A9000227700000000000E08080808080808082F
:104AA000083E0000000000000000007F92929292F9
:104AB00092B70000000000000000003B4642424266
:104AC00042E70000000000000000003C4242424279
:104AD000423C0000000000000000001B2642424251
:104AE000221E0207000000000000007844424242FB
:104AF000447840E000000000000000774C0404040B
:104B0000041F0000000000000000007C42023C4046
:104B1000423E0000000000000008083E08080808A7
:104B200008300000000000000000006342424242E2
:104B300062DC000000000000000000E742242414B2
:104B40000808000000000000000000EB494955552E
:104B5000222200000000000000000076241818182F
:104B6000246E000000000000000000E7422424142E
:104B700018080807000000000000007E2210080846
:104B8000447E000000C02020202020102020202073
:104B90002020C00010101010101010101010101055
:104BA0001010101000060808080808100808080867
:104BB000080806000C32C2000000000000000000DF
:104BC00000000000BADA00003FF821082928254833
:104BD0003FF8010001003FF801000100FFFE000066
:104BE000488844448444B0D70100020004003FF8E0
:104BF00020082008200820083FF820082008200866
:104C0000200820083FF82008C6E51108110813FC09
:104C10001108FD0811F83108390855F851089108B4
:104C200017FE1000109011081204C9EE00000000D9
:104C300000001000000800080C7FFC04401001C8B0
:104C4000A002186042301832231812C30014030067
:104C500004030C047FF0080F80080B4078136018E1
:104C6000332018631818831C190308180300000365
:104C700000000000D7D6000000000006000000037E
:104C800000000000C0000001C0C0000107C000011A
:104C9000FF00021FFE0007F01C0007C070000F009D
:104CA000E0000E03F0001C0FF0003C0F70003C0011
:104CB000E0001800C0000000C0000000C0000000BC
:104CC000600000002000000037000001FF00007FAE
:104CD000F80007F830001F8030000080300000C06E
:104CE0003000006060000018E000000FC000000607
:104CF00000000000000000000000000000000102B1
:104D00000304060708090000284D000800000020E1
:104D1000780000003A1D0008A04D0008780000202F
:104D2000480D00004A1D00080000000010000000AF
:104D30000000000000000000000000000C00000067
:104D40000000000000000000000000000000000063
:104D500078000000A8000000000000000000000033
:104D60000100000010000000000000002000000012
:104D70000000000000000000000000000000000033
:104D80000000000000000000000000000100000022
:104D9000100000000000000000A24A040000000013
:04000005080000ED02
:00000001FF
