:020000040800F2
:100000008803002089010008C9120008B711000800
:10001000C51200082D020008F914000800000000B5
:10002000000000000000000000000000F5120008C1
:100030003102000800000000CB1200084D13000838
:100040009F0100089F0100089F0100089F01000810
:100050009F0100089F0100089F0100089F01000800
:100060009F0100089F0100089F0100089F010008F0
:100070009F0100089F0100089F0100089F010008E0
:100080009F0100089F0100089F0100089F010008D0
:100090009F0100089F0100089F0100089F010008C0
:1000A0009F0100089F0100089F0100089F010008B0
:1000B0009F0100089F010008000000009F01000848
:1000C0009F01000800000000000000009F010008E0
:1000D0009F010008B91400089F01000800000000FB
:1000E0009F0100089F0100089F01000800F002F82E
:1000F00000F03AF80AA090E8000C82448344AAF188
:100100000107DA4501D100F02FF8AFF2090EBAE885
:100110000F0013F0010F18BFFB1A43F0010318473B
:10012000F014000010150000103A24BF78C878C100
:10013000FAD8520724BF30C830C144BF04680C60ED
:10014000704700000023002400250026103A28BF35
:1001500078C1FBD8520728BF30C148BF0B60704739
:100160001FB51FBD10B510BD00F02DF81146FFF7EB
:10017000F7FF01F01BFA00F04BF803B4FFF7F2FFB2
:1001800003BC01F0D7F9000008480047FEE7FEE78E
:10019000FEE7FEE7FEE7FEE7FEE7FEE7FEE7FEE737
:1001A00003480449024A044B70470000ED00000870
:1001B00088010020880300208801002070477047D4
:1001C000704770477047754600F02CF8AE46050042
:1001D0006946534620F00700854618B020B5FFF762
:1001E000DFFFBDE820404FF000064FF000074FF062
:1001F00000084FF0000B21F00701AC46ACE8C00945
:10020000ACE8C009ACE8C009ACE8C0098D4670474D
:1002100010B50446AFF300802046BDE81040FFF75C
:10022000ACBF0000004870472401002000BFFEE77B
:100230007047000070B50446002594F8210002289C
:1002400003D00420A0630125C1E02068006820F0ED
:100250000E00216808602068006820F00100216815
:1002600008605C492068884252D95A497839206828
:10027000884201D1012047E056496439206888420C
:1002800001D1102040E0534950392068884201D103
:10029000801539E04F493C392068884201D18014EB
:1002A00032E04C4928392068884202D14FF480302E
:1002B0002AE0484914392068884202D14FF480105E
:1002C00022E044492068884201D140041CE04249B0
:1002D0002068884201D1012016E03F49143120688E
:1002E000884201D110200FE03B4928312068884224
:1002F00001D1801508E038493C312068884201D19D
:10030000801401E04FF480303349091F086051E048
:10031000304978392068884201D1012047E02D49D1
:1003200064392068884201D1102040E029495039C1
:100330002068884201D1801539E026493C3920687F
:10034000884201D1801432E022492839206888424D
:1003500002D14FF480302AE01E49143920688842C7
:1003600002D14FF4801022E01A492068884201D15E
:1003700040041CE018492068884201D1012016E0A1
:10038000154914312068884201D110200FE012492C
:1003900028312068884201D1801508E00E493C319F
:1003A0002068884201D1801401E04FF4803009496F
:1003B00080394860012084F8210000BF002084F8C3
:1003C000200000BF606B10B12046616B8847284653
:1003D00070BD000080000240080402402DE9F8478B
:1003E000024600239C467BE14FF0010808FA03F423
:1003F000D1F8008008EA0400A0427DD1DFF8F4A221
:10040000D1F80480A8EB0A09D0453AD014DCB8F141
:10041000030F50D009DCB8F1000F31D0B8F1010F53
:100420001CD0B8F1020F49D120E0B8F1110F18D05B
:10043000B8F1120F42D11EE0B9F5881F25D006DCB5
:10044000B9F5803F20D0B9F5801F37D11AE0B9F552
:10045000001F18D0B9F5041F30D117E0D1F80CC037
:100460002DE0D1F80C8008F1040C28E0D1F80C80C4
:1004700008F1080C23E0D1F80C8008F10C0C1EE008
:1004800000BF00BF00BF00BF00BF00BFD1F80880A1
:10049000B8F1000F02D14FF0040C0BE0D1F8088046
:1004A000B8F1010F03D14FF0080C146102E04FF0D6
:1004B000080C546103E04FF0000C00E000BF00BFE7
:1004C000FF2801D8904601E002F104084646FF28C3
:1004D00002D84FEA830803E0A3F108084FEA88082E
:1004E0004746D6F800804FF00F0909FA07F928EAC5
:1004F00009080CFA07F900E07AE048EA0908C6F8AA
:100500000080D1F8048008F08058B8F1805F6FD186
:1005100000BFDFF8E481D8F8188048F00108DFF860
:10052000D891C9F81880C846D8F8188008F0010892
:10053000CDF8008000BF00BF4FEAB9384FEA9309F9
:1005400058F829504FEA83784FEA18794FF00F088E
:1005500008FA09F825EA0805DFF8A081424502D12A
:100560004FF0000824E0DFF89881424502D14FF0B7
:1005700001081DE0DFF88C81424502D14FF00208EE
:1005800016E0DFF88481424502D14FF003080FE006
:10059000DFF87881424502D14FF0040808E0DFF827
:1005A0007081424502D14FF0050801E04FF0060886
:1005B0004FEA83794FEA197908FA09F848EA0505FC
:1005C000DFF850814FEA930948F82950D1F80480A8
:1005D00008F48038B8F5803F0BD1DFF83C81D8F8BB
:1005E000008048EA0008DFF83091C9F800800AE08E
:1005F00075E0DFF82481D8F8008028EA0008DFF8E9
:100600001891C9F80080D1F8048008F40038B8F5D2
:10061000003F0ED1DFF8008108F10408D8F800800F
:1006200048EA0008DFF8F09009F10409C9F80080F1
:100630000DE0DFF8E48008F10408D8F8008028EA2B
:100640000008DFF8D49009F10409C9F80080D1F856
:10065000048008F48018B8F5801F0ED1DFF8B88048
:1006600008F10808D8F8008048EA0008DFF8A890E8
:1006700009F10809C9F800800DE0DFF89C8008F155
:100680000808D8F8008028EA0008DFF88C9009F103
:100690000809C9F80080D1F8048008F40018B8F5FA
:1006A000001F0ED1DFF8708008F10C08D8F8008028
:1006B00048EA0008DFF8609009F10C09C9F80080E9
:1006C0000DE0DFF8548008F10C08D8F8008028EA23
:1006D0000008DFF8449009F10C09C9F800805B1CA0
:1006E000D1F8008028FA03F8B8F1000F7FF47CAE4F
:1006F000BDE8F8870000111000100240000801401A
:10070000000C01400010014000140140001801409D
:10071000001C0140080001400004014002469368AB
:100720000B400BB1012000E0002070470AB10161CD
:1007300001E00B0403617047014800687047000046
:10074000040000200348006803490978084401496F
:1007500008607047040000200C00002010B5084815
:10076000006840F0100006490860052000F070F8AD
:100770000F2000F007F800F02BF8002010BD00005B
:100780000020024070B504460E4800784FF47A719C
:10079000B1FBF0F00C490968B1FBF0F5284600F018
:1007A000C1FB08B1012070BD102C07D200222146E8
:1007B000501E00F00EF80548046001E00120F2E749
:1007C0000020F0E70C0000200000002008000020BE
:1007D00070472DE9F05F80460D461646002700F071
:1007E0008DFE074639462A46334601F00700C0F120
:1007F000070ABAF1040F02D94FF0040A01E0C0F170
:10080000070AD14600F1040ABAF1070F02D24FF0ED
:10081000000A01E0A0F1030AD4464FF0010A0AFAE7
:1008200009FAAAF1010A0AEA020A0AFA0CFA4FF0D6
:10083000010B0BFA0CFBABF1010B0BEA030B4AEAC1
:100840000B042146404600F061FEBDE8F09F000029
:1008500000BF00F00702064B19684FF6FF0319406E
:10086000044B0B4343EA0221014B196000BF704760
:100870000CED00E00000FA0570B504460D460CB919
:10088000012070BD5A48006800F00700A8420ED24F
:100890005748006820F0070028435549086008467B
:1008A000006800F00700A84201D00120E9E72078A5
:1008B00000F0020002281DD1207800F00400042876
:1008C00005D14C48406840F4E0604A4948602078CF
:1008D00000F00800082805D14648406840F4605000
:1008E000444948604348406820F0F000A16808434C
:1008F00040494860207800F0010078B36068012822
:1009000006D13C48006800F4003090B90120B8E7F7
:100910006068022806D13748006800F0007040B9CE
:100920000120AEE73348006800F0020008B901205A
:10093000A7E73048406820F00300616808432D496C
:100940004860FFF7F9FE064609E0FFF7F5FE801B59
:1009500041F28831884202D9032092E707E0254816
:10096000406800F00C006168B0EB810FEDD12048C9
:10097000006800F00700A8420ED91D48006820F06A
:10098000070028431A4908600846006800F007007D
:10099000A84201D0012074E7207800F00400042868
:1009A00007D11448406820F4E060E1680843114929
:1009B0004860207800F00800082808D10D484068F9
:1009C00020F46050216940EAC1000A49486000F003
:1009D00019F808494968C1F30311074A515CC84036
:1009E0000649086006480068FFF7CCFE002048E78B
:1009F0000020024000100240F8150008000000200E
:100A000008000020F0B585B00FF26C0C9CE8E010F7
:100A100001A8A0E8E0101CA52D6800950021002287
:100A2000002300240020194D696801F00C05F5B180
:100A3000042D02D0082D19D101E0154819E001ADAF
:100A4000C1F38346AC5D01F4803555B10F4D6D683F
:100A5000C5F340451DF805200D4D6543B5FBF2F388
:100A600002E00C4D04FB05F3184602E000BF084805
:100A700000BF00BF05B0F0BD02030405060708096A
:100A80000A0B0C0D0E0F10100102000000100240A6
:100A900000127A0000093D00F8B504460CB90120A7
:100AA000F8BD207800F00100002878D0F8484068B0
:100AB00000F00C0004280CD0F548406800F00C0051
:100AC000082811D1F248406800F48030B0F5803F2A
:100AD0000AD1EF48006800F4003000285FD0606859
:100AE00000285CD10120DBE700BF6068B0F5803FE3
:100AF00006D1E748006840F48030E549086028E006
:100B0000606858B9E248006820F48030E049086025
:100B10000846006820F4802008601AE06068B0F59C
:100B2000A02F0BD1DA48006840F48020D849086033
:100B30000846006840F4803008600AE0D448006845
:100B400020F48030D24908600846006820F48020F4
:100B5000086000BF606888B1FFF7EEFD054606E05B
:100B6000FFF7EAFD401B642801D9032098E7C84835
:100B7000006800F400300028F2D010E0FFF7DCFD40
:100B8000054606E0FFF7D8FD401B642801D9032085
:100B900086E7BF48006800F400300028F2D12078D2
:100BA00000F00200022857D1B948406800F00C005C
:100BB00050B1B748406800F00C00082818D1B4487C
:100BC000406800F4803098B9B148006800F0020035
:100BD00020B12069012801D0012061E7AC480068FC
:100BE00020F0F800616940EAC100A949086033E0DB
:100BF0002069E8B10120A7490860FFF79DFD05467F
:100C000006E0FFF799FD401B022801D9032047E7C2
:100C10009F48006800F002000028F2D09C4800685D
:100C200020F0F800616940EAC1009949086013E0CA
:100C3000002098490860FFF77FFD054606E0FFF7B2
:100C40007BFD401B022801D9032029E7904800685A
:100C500000F002000028F2D1207800F008000828F7
:100C60002DD1A069B8B101208B490860FFF764FD60
:100C7000054606E0FFF760FD401B022801D903206E
:100C80000EE78348406A00F002000028F2D00120FD
:100C900000F01CFB13E000207F490860FFF74CFDCB
:100CA000054606E0FFF748FD401B022801D9032056
:100CB000F6E67748406A00F002000028F2D120787A
:100CC00000F00400042873D100277148C06900F0C7
:100CD000805070B900BF6E48C06940F080506C49C8
:100CE000C8610846C06900F08050009000BF00BF96
:100CF00001276A48006800F48070B0B9674800684E
:100D000040F4807065490860FFF716FD054606E06F
:100D1000FFF712FD401B642801D90320C0E65F489D
:100D2000006800F480700028F2D000BFE06801285D
:100D300006D15748006A40F001005549086227E093
:100D4000E06858B95248006A20F001005049086232
:100D50000846006A20F00400086219E0E0680528EF
:100D60000BD14B48006A40F004004949086208462C
:100D7000006A40F0010008620AE04548006A20F07D
:100D80000100434908620846006A20F00400086236
:100D900000BFE068A0B1FFF7CFFC054609E0FFF710
:100DA000CBFC401B41F28831884202D9032077E610
:100DB00022E03748006A00F002000028EFD012E07D
:100DC000FFF7BAFC054608E0FFF7B6FC401B41F20E
:100DD0008831884201D9032062E62D48006A00F07C
:100DE00002000028F0D1012F05D12948C06920F068
:100DF00080502749C86100BFE069C8B324484068F3
:100E000000F00C00082860D0E069022848D10020DA
:100E100020490866FFF790FC054606E0FFF78CFCCA
:100E2000401B022801D903203AE61948006800F067
:100E300000700028F2D1206AB0F5803F07D1144835
:100E4000406820F40030A168084311494860D4E9A3
:100E5000080108430E49496821F4741108430C49FC
:100E6000486001200B490866FFF766FC054607E06D
:100E70003DE0FFF761FC401B022801D903200FE68B
:100E80000348006800F000700028F2D02FE0000056
:100E900000100240000042428004424200700040C4
:100EA000002014490866FFF747FC054606E0FFF7F7
:100EB00043FC401B022801D90320F1E50E480068DD
:100EC00000F000700028F2D111E0E069012800D1A3
:100ED000E6E50948466806F48031206A814204D17B
:100EE00006F47011606A814201D00120D8E500202B
:100EF000D6E500000000424200100240042808D15C
:100F00004FF0E021096941F004014FF0E022116146
:100F100007E04FF0E021096921F004014FF0E022E1
:100F20001161704770B504462546681EB0F1807F98
:100F300001D301200FE0681E4FF0E02148610F212E
:100F40004FF0FF3000F0E2FA00204FF0E02188611E
:100F500007200861002070BD704701460022002371
:100F600091F8392091F83A3042EA030070470000C6
:100F70002DE9F0470446206805682068C6682068A7
:100F800047694FF00008C14605F00F08B8F1000F9F
:100F90000AD105F0200038B106F0200020B120462B
:100FA00000F002FABDE8F087B8F1000F6DD007F04D
:100FB000010018B906F49070002866D005F0010011
:100FC00030B106F4807018B1E06B40F00100E063CE
:100FD00005F0040030B107F0010018B1E06B40F0FB
:100FE0000200E06305F0020030B107F0010018B123
:100FF000E06B40F00400E06305F0080030B107F05A
:10100000010018B1E06B40F00800E063E06B68B3EA
:1010100005F0200028B106F0200010B1204600F0B5
:10102000C3F920684069C0F38019E06B00F0080044
:1010300010B9B9F1000F22D0204600F095F92068D0
:10104000406900F04000B0B12068406920F04000E5
:1010500021684861606B50B11748616B4863606BF1
:10106000FFF7E8F810B1606B416B88470CE0204651
:10107000FFF772FF08E02046FFF76EFF04E020460E
:10108000FFF76AFF0020E0638CE705F0800030B1D5
:1010900006F0800018B1204600F0D9F982E705F08B
:1010A000400030B106F0400018B1204600F06CF965
:1010B00078E700BF76E700005513000810B5034637
:1010C00093F83A0020282FD101B10AB9012010BDB0
:1010D00000BF93F83800012801D10220F7E7012072
:1010E00083F8380000BF99629A85DA850020D863BA
:1010F000222083F83A0000BF002083F8380000BFA8
:101100001868C06840F480701C68E0601868406926
:1011100040F001001C6860611868C06840F0200061
:101120001C68E0600020D2E70220D0E71D4A016879
:10113000914236D11C49098801F4004189BB1A4902
:10114000098801F4804171B1184909780A2903D04E
:101150000021154A118024E01349098841F4004117
:10116000114A11801DE0114909780D2906D10E4957
:10117000098841F480410C4A118012E00B4909783A
:10118000094A1288C2F30D02094B9954064909888D
:10119000491C054A118011460988C72901DD002133
:1011A0001180704700380140180000201A0000200C
:1011B0001C000020704700BFFEE7000000B585B0AE
:1011C00000BF0D48806940F004000B498861084663
:1011D000806900F00400009000BF00BF0320019070
:1011E00000200290012003900320049001A90348ED
:1011F000FFF7F4F805B000BD001002400008014000
:1012000010B50446012C01D119490870184800781E
:10121000E8B101211748FFF781FA20B102211548F2
:10122000FFF77CFA98B90A2000F090F900201049E5
:10123000087001210F48FFF771FA08B9012010BDAD
:1012400002210C48FFF76AFA78B90220F7E701217A
:101250000848FFF763FA012807D102210548FFF784
:101260005DFA012801D1024908700020E7E700007B
:101270001B0000200008014000B585B000BF0F48EA
:10128000806940F010000D4988610846806900F0CF
:101290001000009000BF00BF012001900290039059
:1012A0000320049001A90648FFF798F8012211468F
:1012B0000348FFF73BFA05B000BD000000100240F4
:1012C0000010014000BFFEE77047704708B50849AD
:1012D0000968C9084FF47A72B1FBF2F141430091F9
:1012E00000BF00BF00994A1E00920029F9D108BD35
:1012F00000000020704730B58FB005460024012063
:101300000590000406900020079002200C90C10375
:101310000D910E9505A8FFF7BFFB04460CB100BF69
:10132000FEE70F20009002200190002002904FF471
:10133000806003900020049002216846FFF79CFA29
:1013400004460CB100BFFEE70FB030BD10B5FFF78B
:10135000F9F910BD70B505466C6A0020E085E0849F
:101360002046FFF7F9FD70BD0168C96821F490714E
:101370000268D1600168496921F001010268516188
:10138000202180F83A10704710B504462068C068E4
:1013900020F040002168C860202084F839002046F1
:1013A000FFF708FF002010BD70B5044694F83A001E
:1013B00022284AD1A068B0F5805F13D1A56A2069C0
:1013C00040B920684068C0F308002880A06A801CEB
:1013D000A06219E020684068C0B22880A06A401C62
:1013E000A06211E0206938B920684068C1B2A26AE1
:1013F000501CA062117007E02068406800F07F0177
:10140000A26A501CA0621170E08D401E80B2E0857F
:10141000C8B92068C06820F020002168C860206832
:10142000C06820F480702168C8602068406920F09E
:10143000010021684861202084F83A002046FFF727
:1014400075FE002070BD0020FCE70220FAE701468F
:1014500091F8390021282CD18868B0F5805F0FD130
:101460000A6A1088C0F308000B685860086918B948
:10147000086A801C086209E0086A401C086205E0EE
:101480000B6A581C086218780B685860C88C401E9C
:1014900080B2C88458B90868C06820F080000B6822
:1014A000D8600868C06840F040000B68D860002031
:1014B00070470220FCE7000010B500240C48FFF73D
:1014C00057FD00BF01E0641C00BF0948FFF745FD60
:1014D0002028F8D100BF002401E0641C00BF0122D5
:1014E00004490348FFF7EAFD0028F6D100BF10BD0C
:1014F000E40000201A00002000BFFEE70248006858
:10150000C0F30220704700000CED00E010B5002889
:1015100004DB0A07130E054A135406E00A07140EEB
:10152000034A00F00F031B1FD45410BD00E400E079
:1015300018ED00E000BF704710B504460420FFF727
:10154000DDFC0148046010BD1000002030B50446E9
:10155000002504E04FF47A7000F004F86D1CA542F9
:10156000F8D330BD70B5034600224FF0E026756910
:101570000D4E366803FB06F44FF0E026B16910E02B
:101580004FF0E026B06988420BD0884202D20E1A92
:10159000324402E02E1A0E4432440146A24200D3E5
:1015A00000E0EDE700BF70BD10000020FFF7D6F8A7
:1015B0004FF4E010FFF79FFE4820FFF7BDFFFFF755
:1015C0005BFEFFF7FBFD13E00020FFF719FE04466A
:1015D000012C05D0022C07D101200649086003E048
:1015E00000200449086000BF00BF0A20FFF7AEFFDB
:1015F000EAE7000080012242000000000000000035
:1016000001020304060708090000000001020304A8
:1016100030160008000000201C000000280100080F
:101620004C1600081C0000206C0300004401000858
:101630000024F40000000000100000000100000081
:0C1640000000000000000000000000019D
:04000005080000ED02
:00000001FF
